{
  "contractName": "BancorConverter",
  "abi": [
    {
      "constant": true,
      "inputs": [
        {
          "name": "",
          "type": "address"
        }
      ],
      "name": "connectors",
      "outputs": [
        {
          "name": "virtualBalance",
          "type": "uint256"
        },
        {
          "name": "weight",
          "type": "uint32"
        },
        {
          "name": "isVirtualBalanceEnabled",
          "type": "bool"
        },
        {
          "name": "isPurchaseEnabled",
          "type": "bool"
        },
        {
          "name": "isSet",
          "type": "bool"
        }
      ],
      "payable": false,
      "stateMutability": "view",
      "type": "function"
    },
    {
      "constant": true,
      "inputs": [
        {
          "name": "",
          "type": "uint256"
        }
      ],
      "name": "connectorTokens",
      "outputs": [
        {
          "name": "",
          "type": "address"
        }
      ],
      "payable": false,
      "stateMutability": "view",
      "type": "function"
    },
    {
      "constant": false,
      "inputs": [
        {
          "name": "_newOwner",
          "type": "address"
        }
      ],
      "name": "transferTokenOwnership",
      "outputs": [],
      "payable": false,
      "stateMutability": "nonpayable",
      "type": "function"
    },
    {
      "constant": false,
      "inputs": [],
      "name": "acceptTokenOwnership",
      "outputs": [],
      "payable": false,
      "stateMutability": "nonpayable",
      "type": "function"
    },
    {
      "constant": true,
      "inputs": [],
      "name": "converterType",
      "outputs": [
        {
          "name": "",
          "type": "string"
        }
      ],
      "payable": false,
      "stateMutability": "view",
      "type": "function"
    },
    {
      "constant": false,
      "inputs": [
        {
          "name": "_token",
          "type": "address"
        },
        {
          "name": "_to",
          "type": "address"
        },
        {
          "name": "_amount",
          "type": "uint256"
        }
      ],
      "name": "withdrawFromToken",
      "outputs": [],
      "payable": false,
      "stateMutability": "nonpayable",
      "type": "function"
    },
    {
      "constant": true,
      "inputs": [],
      "name": "newManager",
      "outputs": [
        {
          "name": "",
          "type": "address"
        }
      ],
      "payable": false,
      "stateMutability": "view",
      "type": "function"
    },
    {
      "constant": true,
      "inputs": [],
      "name": "manager",
      "outputs": [
        {
          "name": "",
          "type": "address"
        }
      ],
      "payable": false,
      "stateMutability": "view",
      "type": "function"
    },
    {
      "constant": true,
      "inputs": [],
      "name": "version",
      "outputs": [
        {
          "name": "",
          "type": "string"
        }
      ],
      "payable": false,
      "stateMutability": "view",
      "type": "function"
    },
    {
      "constant": true,
      "inputs": [],
      "name": "conversionFee",
      "outputs": [
        {
          "name": "",
          "type": "uint32"
        }
      ],
      "payable": false,
      "stateMutability": "view",
      "type": "function"
    },
    {
      "constant": true,
      "inputs": [],
      "name": "BANCOR_CONVERTER_FACTORY",
      "outputs": [
        {
          "name": "",
          "type": "bytes32"
        }
      ],
      "payable": false,
      "stateMutability": "view",
      "type": "function"
    },
    {
      "constant": false,
      "inputs": [
        {
          "name": "_token",
          "type": "address"
        },
        {
          "name": "_to",
          "type": "address"
        },
        {
          "name": "_amount",
          "type": "uint256"
        }
      ],
      "name": "withdrawTokens",
      "outputs": [],
      "payable": false,
      "stateMutability": "nonpayable",
      "type": "function"
    },
    {
      "constant": true,
      "inputs": [],
      "name": "BANCOR_FORMULA",
      "outputs": [
        {
          "name": "",
          "type": "bytes32"
        }
      ],
      "payable": false,
      "stateMutability": "view",
      "type": "function"
    },
    {
      "constant": false,
      "inputs": [],
      "name": "acceptOwnership",
      "outputs": [],
      "payable": false,
      "stateMutability": "nonpayable",
      "type": "function"
    },
    {
      "constant": true,
      "inputs": [],
      "name": "registry",
      "outputs": [
        {
          "name": "",
          "type": "address"
        }
      ],
      "payable": false,
      "stateMutability": "view",
      "type": "function"
    },
    {
      "constant": true,
      "inputs": [],
      "name": "CONTRACT_FEATURES",
      "outputs": [
        {
          "name": "",
          "type": "bytes32"
        }
      ],
      "payable": false,
      "stateMutability": "view",
      "type": "function"
    },
    {
      "constant": false,
      "inputs": [
        {
          "name": "_disable",
          "type": "bool"
        }
      ],
      "name": "disableTokenTransfers",
      "outputs": [],
      "payable": false,
      "stateMutability": "nonpayable",
      "type": "function"
    },
    {
      "constant": true,
      "inputs": [],
      "name": "owner",
      "outputs": [
        {
          "name": "",
          "type": "address"
        }
      ],
      "payable": false,
      "stateMutability": "view",
      "type": "function"
    },
    {
      "constant": true,
      "inputs": [],
      "name": "BANCOR_NETWORK",
      "outputs": [
        {
          "name": "",
          "type": "bytes32"
        }
      ],
      "payable": false,
      "stateMutability": "view",
      "type": "function"
    },
    {
      "constant": true,
      "inputs": [],
      "name": "BANCOR_GAS_PRICE_LIMIT",
      "outputs": [
        {
          "name": "",
          "type": "bytes32"
        }
      ],
      "payable": false,
      "stateMutability": "view",
      "type": "function"
    },
    {
      "constant": true,
      "inputs": [],
      "name": "CONVERTER_CONVERSION_WHITELIST",
      "outputs": [
        {
          "name": "",
          "type": "uint256"
        }
      ],
      "payable": false,
      "stateMutability": "view",
      "type": "function"
    },
    {
      "constant": true,
      "inputs": [],
      "name": "maxConversionFee",
      "outputs": [
        {
          "name": "",
          "type": "uint32"
        }
      ],
      "payable": false,
      "stateMutability": "view",
      "type": "function"
    },
    {
      "constant": true,
      "inputs": [],
      "name": "conversionsEnabled",
      "outputs": [
        {
          "name": "",
          "type": "bool"
        }
      ],
      "payable": false,
      "stateMutability": "view",
      "type": "function"
    },
    {
      "constant": true,
      "inputs": [],
      "name": "conversionWhitelist",
      "outputs": [
        {
          "name": "",
          "type": "address"
        }
      ],
      "payable": false,
      "stateMutability": "view",
      "type": "function"
    },
    {
      "constant": false,
      "inputs": [],
      "name": "acceptManagement",
      "outputs": [],
      "payable": false,
      "stateMutability": "nonpayable",
      "type": "function"
    },
    {
      "constant": true,
      "inputs": [],
      "name": "newOwner",
      "outputs": [
        {
          "name": "",
          "type": "address"
        }
      ],
      "payable": false,
      "stateMutability": "view",
      "type": "function"
    },
    {
      "constant": false,
      "inputs": [
        {
          "name": "_newManager",
          "type": "address"
        }
      ],
      "name": "transferManagement",
      "outputs": [],
      "payable": false,
      "stateMutability": "nonpayable",
      "type": "function"
    },
    {
      "constant": true,
      "inputs": [
        {
          "name": "",
          "type": "uint256"
        }
      ],
      "name": "quickBuyPath",
      "outputs": [
        {
          "name": "",
          "type": "address"
        }
      ],
      "payable": false,
      "stateMutability": "view",
      "type": "function"
    },
    {
      "constant": false,
      "inputs": [
        {
          "name": "_newOwner",
          "type": "address"
        }
      ],
      "name": "transferOwnership",
      "outputs": [],
      "payable": false,
      "stateMutability": "nonpayable",
      "type": "function"
    },
    {
      "constant": true,
      "inputs": [],
      "name": "token",
      "outputs": [
        {
          "name": "",
          "type": "address"
        }
      ],
      "payable": false,
      "stateMutability": "view",
      "type": "function"
    },
    {
      "inputs": [
        {
          "name": "_token",
          "type": "address"
        },
        {
          "name": "_registry",
          "type": "address"
        },
        {
          "name": "_maxConversionFee",
          "type": "uint32"
        },
        {
          "name": "_connectorToken",
          "type": "address"
        },
        {
          "name": "_connectorWeight",
          "type": "uint32"
        }
      ],
      "payable": false,
      "stateMutability": "nonpayable",
      "type": "constructor"
    },
    {
      "payable": true,
      "stateMutability": "payable",
      "type": "fallback"
    },
    {
      "anonymous": false,
      "inputs": [
        {
          "indexed": true,
          "name": "_fromToken",
          "type": "address"
        },
        {
          "indexed": true,
          "name": "_toToken",
          "type": "address"
        },
        {
          "indexed": true,
          "name": "_trader",
          "type": "address"
        },
        {
          "indexed": false,
          "name": "_amount",
          "type": "uint256"
        },
        {
          "indexed": false,
          "name": "_return",
          "type": "uint256"
        },
        {
          "indexed": false,
          "name": "_conversionFee",
          "type": "int256"
        }
      ],
      "name": "Conversion",
      "type": "event"
    },
    {
      "anonymous": false,
      "inputs": [
        {
          "indexed": true,
          "name": "_connectorToken",
          "type": "address"
        },
        {
          "indexed": false,
          "name": "_tokenSupply",
          "type": "uint256"
        },
        {
          "indexed": false,
          "name": "_connectorBalance",
          "type": "uint256"
        },
        {
          "indexed": false,
          "name": "_connectorWeight",
          "type": "uint32"
        }
      ],
      "name": "PriceDataUpdate",
      "type": "event"
    },
    {
      "anonymous": false,
      "inputs": [
        {
          "indexed": false,
          "name": "_prevFee",
          "type": "uint32"
        },
        {
          "indexed": false,
          "name": "_newFee",
          "type": "uint32"
        }
      ],
      "name": "ConversionFeeUpdate",
      "type": "event"
    },
    {
      "anonymous": false,
      "inputs": [
        {
          "indexed": true,
          "name": "_prevManager",
          "type": "address"
        },
        {
          "indexed": true,
          "name": "_newManager",
          "type": "address"
        }
      ],
      "name": "ManagerUpdate",
      "type": "event"
    },
    {
      "anonymous": false,
      "inputs": [
        {
          "indexed": true,
          "name": "_prevOwner",
          "type": "address"
        },
        {
          "indexed": true,
          "name": "_newOwner",
          "type": "address"
        }
      ],
      "name": "OwnerUpdate",
      "type": "event"
    },
    {
      "constant": true,
      "inputs": [],
      "name": "connectorTokenCount",
      "outputs": [
        {
          "name": "",
          "type": "uint16"
        }
      ],
      "payable": false,
      "stateMutability": "view",
      "type": "function"
    },
    {
      "constant": false,
      "inputs": [
        {
          "name": "_registry",
          "type": "address"
        }
      ],
      "name": "setRegistry",
      "outputs": [],
      "payable": false,
      "stateMutability": "nonpayable",
      "type": "function"
    },
    {
      "constant": false,
      "inputs": [
        {
          "name": "_whitelist",
          "type": "address"
        }
      ],
      "name": "setConversionWhitelist",
      "outputs": [],
      "payable": false,
      "stateMutability": "nonpayable",
      "type": "function"
    },
    {
      "constant": false,
      "inputs": [
        {
          "name": "_path",
          "type": "address[]"
        }
      ],
      "name": "setQuickBuyPath",
      "outputs": [],
      "payable": false,
      "stateMutability": "nonpayable",
      "type": "function"
    },
    {
      "constant": false,
      "inputs": [],
      "name": "clearQuickBuyPath",
      "outputs": [],
      "payable": false,
      "stateMutability": "nonpayable",
      "type": "function"
    },
    {
      "constant": true,
      "inputs": [],
      "name": "getQuickBuyPathLength",
      "outputs": [
        {
          "name": "",
          "type": "uint256"
        }
      ],
      "payable": false,
      "stateMutability": "view",
      "type": "function"
    },
    {
      "constant": false,
      "inputs": [
        {
          "name": "_disable",
          "type": "bool"
        }
      ],
      "name": "disableConversions",
      "outputs": [],
      "payable": false,
      "stateMutability": "nonpayable",
      "type": "function"
    },
    {
      "constant": false,
      "inputs": [
        {
          "name": "_conversionFee",
          "type": "uint32"
        }
      ],
      "name": "setConversionFee",
      "outputs": [],
      "payable": false,
      "stateMutability": "nonpayable",
      "type": "function"
    },
    {
      "constant": true,
      "inputs": [
        {
          "name": "_amount",
          "type": "uint256"
        },
        {
          "name": "_magnitude",
          "type": "uint8"
        }
      ],
      "name": "getFinalAmount",
      "outputs": [
        {
          "name": "",
          "type": "uint256"
        }
      ],
      "payable": false,
      "stateMutability": "view",
      "type": "function"
    },
    {
      "constant": false,
      "inputs": [
        {
          "name": "_token",
          "type": "address"
        },
        {
          "name": "_weight",
          "type": "uint32"
        },
        {
          "name": "_enableVirtualBalance",
          "type": "bool"
        }
      ],
      "name": "addConnector",
      "outputs": [],
      "payable": false,
      "stateMutability": "nonpayable",
      "type": "function"
    },
    {
      "constant": false,
      "inputs": [
        {
          "name": "_connectorToken",
          "type": "address"
        },
        {
          "name": "_weight",
          "type": "uint32"
        },
        {
          "name": "_enableVirtualBalance",
          "type": "bool"
        },
        {
          "name": "_virtualBalance",
          "type": "uint256"
        }
      ],
      "name": "updateConnector",
      "outputs": [],
      "payable": false,
      "stateMutability": "nonpayable",
      "type": "function"
    },
    {
      "constant": false,
      "inputs": [
        {
          "name": "_connectorToken",
          "type": "address"
        },
        {
          "name": "_disable",
          "type": "bool"
        }
      ],
      "name": "disableConnectorPurchases",
      "outputs": [],
      "payable": false,
      "stateMutability": "nonpayable",
      "type": "function"
    },
    {
      "constant": true,
      "inputs": [
        {
          "name": "_connectorToken",
          "type": "address"
        }
      ],
      "name": "getConnectorBalance",
      "outputs": [
        {
          "name": "",
          "type": "uint256"
        }
      ],
      "payable": false,
      "stateMutability": "view",
      "type": "function"
    },
    {
      "constant": true,
      "inputs": [
        {
          "name": "_fromToken",
          "type": "address"
        },
        {
          "name": "_toToken",
          "type": "address"
        },
        {
          "name": "_amount",
          "type": "uint256"
        }
      ],
      "name": "getReturn",
      "outputs": [
        {
          "name": "",
          "type": "uint256"
        }
      ],
      "payable": false,
      "stateMutability": "view",
      "type": "function"
    },
    {
      "constant": true,
      "inputs": [
        {
          "name": "_connectorToken",
          "type": "address"
        },
        {
          "name": "_depositAmount",
          "type": "uint256"
        }
      ],
      "name": "getPurchaseReturn",
      "outputs": [
        {
          "name": "",
          "type": "uint256"
        }
      ],
      "payable": false,
      "stateMutability": "view",
      "type": "function"
    },
    {
      "constant": true,
      "inputs": [
        {
          "name": "_connectorToken",
          "type": "address"
        },
        {
          "name": "_sellAmount",
          "type": "uint256"
        }
      ],
      "name": "getSaleReturn",
      "outputs": [
        {
          "name": "",
          "type": "uint256"
        }
      ],
      "payable": false,
      "stateMutability": "view",
      "type": "function"
    },
    {
      "constant": true,
      "inputs": [
        {
          "name": "_fromConnectorToken",
          "type": "address"
        },
        {
          "name": "_toConnectorToken",
          "type": "address"
        },
        {
          "name": "_sellAmount",
          "type": "uint256"
        }
      ],
      "name": "getCrossConnectorReturn",
      "outputs": [
        {
          "name": "",
          "type": "uint256"
        }
      ],
      "payable": false,
      "stateMutability": "view",
      "type": "function"
    },
    {
      "constant": false,
      "inputs": [
        {
          "name": "_fromToken",
          "type": "address"
        },
        {
          "name": "_toToken",
          "type": "address"
        },
        {
          "name": "_amount",
          "type": "uint256"
        },
        {
          "name": "_minReturn",
          "type": "uint256"
        }
      ],
      "name": "convertInternal",
      "outputs": [
        {
          "name": "",
          "type": "uint256"
        }
      ],
      "payable": false,
      "stateMutability": "nonpayable",
      "type": "function"
    },
    {
      "constant": false,
      "inputs": [
        {
          "name": "_fromToken",
          "type": "address"
        },
        {
          "name": "_toToken",
          "type": "address"
        },
        {
          "name": "_amount",
          "type": "uint256"
        },
        {
          "name": "_minReturn",
          "type": "uint256"
        }
      ],
      "name": "convert",
      "outputs": [
        {
          "name": "",
          "type": "uint256"
        }
      ],
      "payable": false,
      "stateMutability": "nonpayable",
      "type": "function"
    },
    {
      "constant": false,
      "inputs": [
        {
          "name": "_path",
          "type": "address[]"
        },
        {
          "name": "_amount",
          "type": "uint256"
        },
        {
          "name": "_minReturn",
          "type": "uint256"
        }
      ],
      "name": "quickConvert",
      "outputs": [
        {
          "name": "",
          "type": "uint256"
        }
      ],
      "payable": true,
      "stateMutability": "payable",
      "type": "function"
    },
    {
      "constant": false,
      "inputs": [
        {
          "name": "_path",
          "type": "address[]"
        },
        {
          "name": "_amount",
          "type": "uint256"
        },
        {
          "name": "_minReturn",
          "type": "uint256"
        },
        {
          "name": "_block",
          "type": "uint256"
        },
        {
          "name": "_v",
          "type": "uint8"
        },
        {
          "name": "_r",
          "type": "bytes32"
        },
        {
          "name": "_s",
          "type": "bytes32"
        }
      ],
      "name": "quickConvertPrioritized",
      "outputs": [
        {
          "name": "",
          "type": "uint256"
        }
      ],
      "payable": true,
      "stateMutability": "payable",
      "type": "function"
    },
    {
      "constant": false,
      "inputs": [
        {
          "name": "_fromToken",
          "type": "address"
        },
        {
          "name": "_toToken",
          "type": "address"
        },
        {
          "name": "_amount",
          "type": "uint256"
        },
        {
          "name": "_minReturn",
          "type": "uint256"
        }
      ],
      "name": "change",
      "outputs": [
        {
          "name": "",
          "type": "uint256"
        }
      ],
      "payable": false,
      "stateMutability": "nonpayable",
      "type": "function"
    }
  ],
  "bytecode": "0x60c0604052600460808190527f302e31300000000000000000000000000000000000000000000000000000000060a090815262000040916005919062000579565b506040805180820190915260068082527f62616e636f720000000000000000000000000000000000000000000000000000602090920191825262000085918162000579565b50600c80546001606860020a0319166c01000000000000000000000000179055348015620000b257600080fd5b5060405160a08062003c408339810160409081528151602083015191830151606084015160809094015160008054600160a060020a03191633178155929491928580600160a060020a03811615156200010a57600080fd5b5060028054600160a060020a03928316600160a060020a03199182161790915560038054909116331790558590811615156200014557600080fd5b8460008163ffffffff1610158015620001675750620f424063ffffffff821611155b15156200017357600080fd5b60078054600160a060020a031916600160a060020a038981169190911791829055604080517fbb34534c0000000000000000000000000000000000000000000000000000000081527f436f6e747261637446656174757265730000000000000000000000000000000060048201529051929091169163bb34534c916024808201926020929091908290030181600087803b1580156200021157600080fd5b505af115801562000226573d6000803e3d6000fd5b505050506040513d60208110156200023d57600080fd5b50519250600160a060020a03831615620002d457604080517f2c7077c000000000000000000000000000000000000000000000000000000000815260016004820181905260248201529051600160a060020a03851691632c7077c091604480830192600092919082900301818387803b158015620002ba57600080fd5b505af1158015620002cf573d6000803e3d6000fd5b505050505b600c805467ffffffff00000000191664010000000063ffffffff891602179055600160a060020a038516156200031b576200031b8585600064010000000062000329810204565b50505050505050506200061e565b600054600160a060020a031633146200033e57fe5b600254604080517f8da5cb5b00000000000000000000000000000000000000000000000000000000815290513092600160a060020a031691638da5cb5b9160048083019260209291908290030181600087803b1580156200039e57600080fd5b505af1158015620003b3573d6000803e3d6000fd5b505050506040513d6020811015620003ca57600080fd5b5051600160a060020a03161415620003de57fe5b82600160a060020a0381161515620003f557600080fd5b83600160a060020a0381163014156200040d57600080fd5b8360008163ffffffff161180156200042e5750620f424063ffffffff821611155b15156200043a57600080fd5b600254600160a060020a038781169116148015906200047f5750600160a060020a0386166000908152600b60205260409020600101546601000000000000900460ff16155b80156200049e5750600c54620f424063ffffffff918216870190911611155b1515620004aa57600080fd5b505050600160a060020a039092166000818152600b602052604081208181556001908101805466ff0000000000001965ff0000000000199715156401000000000264ff000000001963ffffffff808a1663ffffffff19958616179190911691909117989098166501000000000017166601000000000000179091556009805492830181559092527f6e1540171b6c0c960b71a7020d9f60077f6af931a8bbf590da0223dacf75c7af018054600160a060020a031916909217909155600c80548085169093019093169116179055565b828054600181600116156101000203166002900490600052602060002090601f016020900481019282601f10620005bc57805160ff1916838001178555620005ec565b82800160010185558215620005ec579182015b82811115620005ec578251825591602001919060010190620005cf565b50620005fa929150620005fe565b5090565b6200061b91905b80821115620005fa576000815560010162000605565b90565b613612806200062e6000396000f3006080604052600436106102585763ffffffff60e060020a6000350416630ca7892381146102c15780630e53aae9146102f557806319b640151461034a5780631e1401f81461037e57806321e6b53d146103ba57806322742564146103db578063228d2820146104435780632a2e2f0c1461045d57806338a5e0161461048a5780633aa0145a1461049f5780633e8ff43f146104bd5780633f4d2fc21461054757806341a5b33d1461057657806342906029146105a0578063481c6a75146105b55780634af80f0e146105ca5780634e2280c4146105eb578063514385be1461060057806354fd4d5014610626578063579cd3ca1461063b5780635a46f06c146106695780635e35359e1461067e5780635e5144eb146106a85780636d7bd3fc146106d557806371f52bf3146106ea57806372b44b2c1461071657806375892cf11461073a57806379ba5097146107675780637b1039991461077c57806383315b6e1461079157806385d5e631146107a65780638da5cb5b146107c05780638e3047e0146107d55780639232494e146107ff5780639249993a1461081457806392d1abb7146108295780639396a7f01461083e57806394c275ad14610853578063a2c4c33614610868578063a91ee0dc1461088c578063bf754558146108ad578063c45d3d92146108d6578063c8c2fe6c146108eb578063d395ee0f14610900578063d4ee1d9014610955578063d89595121461096a578063e4edf8521461098b578063e7ee85a5146109ac578063ecbca55d146109c4578063f0843ba9146109e2578063f2fde38b14610a33578063fc0c546a14610a54575b6102be600a8054806020026020016040519081016040528092919081815260200182805480156102b157602002820191906000526020600020905b8154600160a060020a03168152600190910190602001808311610293575b5050505050346001610a69565b50005b3480156102cd57600080fd5b506102f3600160a060020a036004351663ffffffff602435166044351515606435610ab4565b005b34801561030157600080fd5b50610316600160a060020a0360043516610bc4565b6040805195865263ffffffff9094166020860152911515848401521515606084015215156080830152519081900360a00190f35b34801561035657600080fd5b50610362600435610c0a565b60408051600160a060020a039092168252519081900360200190f35b34801561038a57600080fd5b506103a8600160a060020a0360043581169060243516604435610c32565b60408051918252519081900360200190f35b3480156103c657600080fd5b506102f3600160a060020a0360043516610ca9565b604080516020600480358082013583810280860185019096528085526103a895369593946024949385019291829185019084908082843750949750508435955050506020830135926040810135925060ff606082013516915060808101359060a00135610d3f565b34801561044f57600080fd5b506102f3600435151561113e565b34801561046957600080fd5b506103a8600160a060020a0360043581169060243516604435606435611199565b34801561049657600080fd5b506102f36116de565b3480156104ab57600080fd5b506103a860043560ff6024351661175f565b3480156104c957600080fd5b506104d26117bb565b6040805160208082528351818301528351919283929083019185019080838360005b8381101561050c5781810151838201526020016104f4565b50505050905090810190601f1680156105395780820380516001836020036101000a031916815260200191505b509250505060405180910390f35b34801561055357600080fd5b506102f3600160a060020a036004351663ffffffff602435166044351515611849565b34801561058257600080fd5b506102f3600160a060020a0360043581169060243516604435611a9a565b3480156105ac57600080fd5b50610362611b41565b3480156105c157600080fd5b50610362611b50565b3480156105d657600080fd5b506102f3600160a060020a0360043516611b5f565b3480156105f757600080fd5b506102f3611bba565b34801561060c57600080fd5b506102f3600160a060020a03600435166024351515611bde565b34801561063257600080fd5b506104d2611c63565b34801561064757600080fd5b50610650611cbe565b6040805163ffffffff9092168252519081900360200190f35b34801561067557600080fd5b506103a8611cd6565b34801561068a57600080fd5b506102f3600160a060020a0360043581169060243516604435611cfa565b3480156106b457600080fd5b506103a8600160a060020a0360043581169060243516604435606435611df0565b3480156106e157600080fd5b506103a8611dfe565b3480156106f657600080fd5b506106ff611e22565b6040805161ffff9092168252519081900360200190f35b34801561072257600080fd5b506103a8600160a060020a0360043516602435611e29565b34801561074657600080fd5b506103a8600160a060020a0360043581169060243516604435606435612128565b34801561077357600080fd5b506102f36121c9565b34801561078857600080fd5b50610362612251565b34801561079d57600080fd5b506103a8612260565b3480156107b257600080fd5b506102f36004351515612284565b3480156107cc57600080fd5b506103626122ff565b3480156107e157600080fd5b506103a8600160a060020a036004358116906024351660443561230e565b34801561080b57600080fd5b506103a8612605565b34801561082057600080fd5b506103a8612629565b34801561083557600080fd5b506103a861264d565b34801561084a57600080fd5b506103a8612652565b34801561085f57600080fd5b50610650612658565b34801561087457600080fd5b506103a8600160a060020a036004351660243561266c565b34801561089857600080fd5b506102f3600160a060020a036004351661293f565b3480156108b957600080fd5b506108c26129b1565b604080519115158252519081900360200190f35b3480156108e257600080fd5b506103626129ca565b3480156108f757600080fd5b506102f36129d9565b34801561090c57600080fd5b50604080516020600480358082013583810280860185019096528085526102f395369593946024949385019291829185019084908082843750949750612a639650505050505050565b34801561096157600080fd5b50610362612abf565b34801561097657600080fd5b506103a8600160a060020a0360043516612ace565b34801561099757600080fd5b506102f3600160a060020a0360043516612bd2565b3480156109b857600080fd5b50610362600435612c4a565b3480156109d057600080fd5b506102f363ffffffff60043516612c58565b604080516020600480358082013583810280860185019096528085526103a895369593946024949385019291829185019084908082843750949750508435955050506020909201359150610a699050565b348015610a3f57600080fd5b506102f3600160a060020a0360043516612d3f565b348015610a6057600080fd5b50610362612d9d565b60008360028151118015610a7f57506015815111155b8015610a9057508051600290066001145b1515610a9b57600080fd5b610aab8585856000808080610d3f565b95945050505050565b60008054600160a060020a03163314610ac957fe5b600160a060020a0385166000908152600b602052604090206001015485906601000000000000900460ff161515610aff57600080fd5b8460008163ffffffff16118015610b1f5750620f424063ffffffff821611155b1515610b2a57600080fd5b600160a060020a0387166000908152600b602052604090206001810154600c54919450620f424063ffffffff918216928216929092038801161115610b6e57600080fd5b5050600181018054600c805463ffffffff928316818416038801831663ffffffff199182161790915582549515156401000000000264ff0000000019929097169516949094179390931693909317909155905550565b600b602052600090815260409020805460019091015463ffffffff81169060ff640100000000820481169165010000000000810482169166010000000000009091041685565b6009805482908110610c1857fe5b600091825260209091200154600160a060020a0316905081565b6000600160a060020a038481169084161415610c4d57600080fd5b600254600160a060020a0384811691161415610c7457610c6d848361266c565b9050610ca2565b600254600160a060020a0385811691161415610c9457610c6d8383611e29565b610c9f84848461230e565b90505b9392505050565b600054600160a060020a03163314610cbd57fe5b600254604080517ff2fde38b000000000000000000000000000000000000000000000000000000008152600160a060020a0384811660048301529151919092169163f2fde38b91602480830192600092919082900301818387803b158015610d2457600080fd5b505af1158015610d38573d6000803e3d6000fd5b5050505050565b60008060008960028151118015610d5857506015815111155b8015610d6957508051600290066001145b1515610d7457600080fd5b8a6000815181101515610d8357fe5b6020908102909101810151600754604080517fbb34534c0000000000000000000000000000000000000000000000000000000081527f42616e636f724e6574776f726b0000000000000000000000000000000000000060048201529051929650600160a060020a039091169263bb34534c926024808401938290030181600087803b158015610e1157600080fd5b505af1158015610e25573d6000803e3d6000fd5b505050506040513d6020811015610e3b57600080fd5b5051915034151561101b57600254600160a060020a0384811691161415610f7557600254604080517fa24835d1000000000000000000000000000000000000000000000000000000008152336004820152602481018d90529051600160a060020a039092169163a24835d19160448082019260009290919082900301818387803b158015610ec857600080fd5b505af1158015610edc573d6000803e3d6000fd5b50505050600260009054906101000a9004600160a060020a0316600160a060020a031663867904b4838c6040518363ffffffff1660e060020a0281526004018083600160a060020a0316600160a060020a0316815260200182815260200192505050600060405180830381600087803b158015610f5857600080fd5b505af1158015610f6c573d6000803e3d6000fd5b5050505061101b565b604080517f23b872dd000000000000000000000000000000000000000000000000000000008152336004820152600160a060020a038481166024830152604482018d90529151918516916323b872dd916064808201926020929091908290030181600087803b158015610fe757600080fd5b505af1158015610ffb573d6000803e3d6000fd5b505050506040513d602081101561101157600080fd5b5051151561101b57fe5b81600160a060020a0316636b08f2ef348d8d8d338e8e8e8e6040518a63ffffffff1660e060020a028152600401808060200189815260200188815260200187600160a060020a0316600160a060020a031681526020018681526020018560ff1660ff1681526020018460001916600019168152602001836000191660001916815260200182810382528a818151815260200191508051906020019060200280838360005b838110156110d75781810151838201526020016110bf565b5050505090500199505050505050505050506020604051808303818588803b15801561110257600080fd5b505af1158015611116573d6000803e3d6000fd5b50505050506040513d602081101561112d57600080fd5b50519b9a5050505050505050505050565b600054600160a060020a03163314806111615750600354600160a060020a031633145b151561116c57600080fd5b600c80546cff000000000000000000000000191691156c0100000000000000000000000002919091179055565b600754604080517fbb34534c0000000000000000000000000000000000000000000000000000000081527f42616e636f724e6574776f726b0000000000000000000000000000000000000060048201529051600092839283928392839283928392600160a060020a03169163bb34534c91602480830192602092919082900301818787803b15801561122a57600080fd5b505af115801561123e573d6000803e3d6000fd5b505050506040513d602081101561125457600080fd5b5051905033600160a060020a0382161461126d57600080fd5b600c546c01000000000000000000000000900460ff16151561128b57fe5b876000811161129957600080fd5b600160a060020a038c8116908c1614156112b257600080fd5b600254600160a060020a038c8116911614156112da576112d38c8b8b612dac565b97506116cf565b600254600160a060020a038d8116911614156112fb576112d38b8b8b61304f565b6113068c8c8c61230e565b965086158015906113175750888710155b151561132257600080fd5b600160a060020a038c166000908152600b602052604090206001810154909650640100000000900460ff161561136157855461135e908b61343c565b86555b600160a060020a038b166000908152600b602052604090206001810154909550640100000000900460ff16156113a057845461139d908861344b565b85555b6113a98b612ace565b93508387106113b457fe5b604080517f23b872dd000000000000000000000000000000000000000000000000000000008152336004820152306024820152604481018c90529051600160a060020a038e16916323b872dd9160648083019260209291908290030181600087803b15801561142257600080fd5b505af1158015611436573d6000803e3d6000fd5b505050506040513d602081101561144c57600080fd5b5051151561145657fe5b604080517fa9059cbb000000000000000000000000000000000000000000000000000000008152336004820152602481018990529051600160a060020a038d169163a9059cbb9160448083019260209291908290030181600087803b1580156114be57600080fd5b505af11580156114d2573d6000803e3d6000fd5b505050506040513d60208110156114e857600080fd5b505115156114f257fe5b6115068761150189600261175f565b61344b565b92506115158c8c8c8a8761345d565b8b600160a060020a03167f8a6a7f53b3c8fa1dc4b83e3f1be668c1b251ff8d44cdcb83eb3acec3fec6a788600260009054906101000a9004600160a060020a0316600160a060020a03166318160ddd6040518163ffffffff1660e060020a028152600401602060405180830381600087803b15801561159357600080fd5b505af11580156115a7573d6000803e3d6000fd5b505050506040513d60208110156115bd57600080fd5b50516115c88f612ace565b60018a015460408051938452602084019290925263ffffffff1682820152519081900360600190a28a600160a060020a03167f8a6a7f53b3c8fa1dc4b83e3f1be668c1b251ff8d44cdcb83eb3acec3fec6a788600260009054906101000a9004600160a060020a0316600160a060020a03166318160ddd6040518163ffffffff1660e060020a028152600401602060405180830381600087803b15801561166e57600080fd5b505af1158015611682573d6000803e3d6000fd5b505050506040513d602081101561169857600080fd5b50516116a38e612ace565b600189015460408051938452602084019290925263ffffffff1682820152519081900360600190a28697505b50505050505050949350505050565b600054600160a060020a031633146116f257fe5b600260009054906101000a9004600160a060020a0316600160a060020a03166379ba50976040518163ffffffff1660e060020a028152600401600060405180830381600087803b15801561174557600080fd5b505af1158015611759573d6000803e3d6000fd5b50505050565b60008160ff16620f42400a67ffffffffffffffff166117aa848460ff16600c60089054906101000a900463ffffffff1663ffffffff16620f4240030a67ffffffffffffffff166134e1565b8115156117b357fe5b049392505050565b6006805460408051602060026001851615610100026000190190941693909304601f810184900484028201840190925281815292918301828280156118415780601f1061181657610100808354040283529160200191611841565b820191906000526020600020905b81548152906001019060200180831161182457829003601f168201915b505050505081565b600054600160a060020a0316331461185d57fe5b600254604080517f8da5cb5b00000000000000000000000000000000000000000000000000000000815290513092600160a060020a031691638da5cb5b9160048083019260209291908290030181600087803b1580156118bc57600080fd5b505af11580156118d0573d6000803e3d6000fd5b505050506040513d60208110156118e657600080fd5b5051600160a060020a031614156118f957fe5b82600160a060020a038116151561190f57600080fd5b83600160a060020a03811630141561192657600080fd5b8360008163ffffffff161180156119465750620f424063ffffffff821611155b151561195157600080fd5b600254600160a060020a038781169116148015906119955750600160a060020a0386166000908152600b60205260409020600101546601000000000000900460ff16155b80156119b35750600c54620f424063ffffffff918216870190911611155b15156119be57600080fd5b505050600160a060020a039092166000818152600b602052604081208181556001908101805466ff0000000000001965ff0000000000199715156401000000000264ff000000001963ffffffff808a1663ffffffff19958616179190911691909117989098166501000000000017166601000000000000179091556009805492830181559092527f6e1540171b6c0c960b71a7020d9f60077f6af931a8bbf590da0223dacf75c7af01805473ffffffffffffffffffffffffffffffffffffffff1916909217909155600c80548085169093019093169116179055565b600054600160a060020a03163314611aae57fe5b600254604080517f5e35359e000000000000000000000000000000000000000000000000000000008152600160a060020a03868116600483015285811660248301526044820185905291519190921691635e35359e91606480830192600092919082900301818387803b158015611b2457600080fd5b505af1158015611b38573d6000803e3d6000fd5b50505050505050565b600454600160a060020a031681565b600354600160a060020a031681565b600054600160a060020a03163314611b7357fe5b80600160a060020a038116301415611b8a57600080fd5b506008805473ffffffffffffffffffffffffffffffffffffffff1916600160a060020a0392909216919091179055565b600054600160a060020a03163314611bce57fe5b6000611bdb600a82613505565b50565b600054600160a060020a03163314611bf257fe5b600160a060020a0382166000908152600b602052604090206001015482906601000000000000900460ff161515611c2857600080fd5b50600160a060020a03919091166000908152600b60205260409020600101805465ff0000000000191691156501000000000002919091179055565b6005805460408051602060026001851615610100026000190190941693909304601f810184900484028201840190925281815292918301828280156118415780601f1061181657610100808354040283529160200191611841565b600c5468010000000000000000900463ffffffff1681565b7f42616e636f72436f6e766572746572466163746f72790000000000000000000081565b600054600160a060020a03163314611d0e57fe5b82600160a060020a0381161515611d2457600080fd5b82600160a060020a0381161515611d3a57600080fd5b83600160a060020a038116301415611d5157600080fd5b85600160a060020a031663a9059cbb86866040518363ffffffff1660e060020a0281526004018083600160a060020a0316600160a060020a0316815260200182815260200192505050602060405180830381600087803b158015611db457600080fd5b505af1158015611dc8573d6000803e3d6000fd5b505050506040513d6020811015611dde57600080fd5b50511515611de857fe5b505050505050565b6000610aab85858585611199565b7f42616e636f72466f726d756c610000000000000000000000000000000000000081565b6009545b90565b60008060008060008030600160a060020a0316600260009054906101000a9004600160a060020a0316600160a060020a0316638da5cb5b6040518163ffffffff1660e060020a028152600401602060405180830381600087803b158015611e8f57600080fd5b505af1158015611ea3573d6000803e3d6000fd5b505050506040513d6020811015611eb957600080fd5b5051600160a060020a031614611ecb57fe5b600160a060020a0388166000908152600b602052604090206001015488906601000000000000900460ff161515611f0157600080fd5b600160a060020a03808a166000908152600b6020908152604080832060025482517f18160ddd0000000000000000000000000000000000000000000000000000000081529251919b50909416936318160ddd93600480840194938390030190829087803b158015611f7157600080fd5b505af1158015611f85573d6000803e3d6000fd5b505050506040513d6020811015611f9b57600080fd5b50519450611fa889612ace565b600754604080517fbb34534c0000000000000000000000000000000000000000000000000000000081527f42616e636f72466f726d756c610000000000000000000000000000000000000060048201529051929650600160a060020a039091169163bb34534c916024808201926020929091908290030181600087803b15801561203157600080fd5b505af1158015612045573d6000803e3d6000fd5b505050506040513d602081101561205b57600080fd5b50516001870154604080517f49f9b0f7000000000000000000000000000000000000000000000000000000008152600481018990526024810188905263ffffffff9092166044830152606482018b905251919450600160a060020a038516916349f9b0f7916084808201926020929091908290030181600087803b1580156120e257600080fd5b505af11580156120f6573d6000803e3d6000fd5b505050506040513d602081101561210c57600080fd5b5051915061211b82600161175f565b9998505050505050505050565b60408051606081018252600160a060020a0380871682526002548116602083015285169181019190915260009061216390600d906003613529565b50610aab600d8054806020026020016040519081016040528092919081815260200182805480156121bd57602002820191906000526020600020905b8154600160a060020a0316815260019091019060200180831161219f575b50505050508484610a69565b600154600160a060020a031633146121e057600080fd5b60015460008054604051600160a060020a0393841693909116917f343765429aea5a34b3ff6a3785a98a5abb2597aca87bfbb58632c173d585373a91a3600180546000805473ffffffffffffffffffffffffffffffffffffffff19908116600160a060020a03841617909155169055565b600754600160a060020a031681565b7f436f6e747261637446656174757265730000000000000000000000000000000081565b600054600160a060020a0316331461229857fe5b600254604080517f1608f18f00000000000000000000000000000000000000000000000000000000815283151560048201529051600160a060020a0390921691631608f18f9160248082019260009290919082900301818387803b158015610d2457600080fd5b600054600160a060020a031681565b600080600080600080600030600160a060020a0316600260009054906101000a9004600160a060020a0316600160a060020a0316638da5cb5b6040518163ffffffff1660e060020a028152600401602060405180830381600087803b15801561237657600080fd5b505af115801561238a573d6000803e3d6000fd5b505050506040513d60208110156123a057600080fd5b5051600160a060020a0316146123b257fe5b600160a060020a038a166000908152600b60205260409020600101548a906601000000000000900460ff1615156123e857600080fd5b600160a060020a038a166000908152600b60205260409020600101548a906601000000000000900460ff16151561241e57600080fd5b600160a060020a038c81166000908152600b6020526040808220928e16825290206001810154919950975065010000000000900460ff16151561246057600080fd5b6124698c612ace565b95506124748b612ace565b600754604080517fbb34534c0000000000000000000000000000000000000000000000000000000081527f42616e636f72466f726d756c610000000000000000000000000000000000000060048201529051929750600160a060020a039091169163bb34534c916024808201926020929091908290030181600087803b1580156124fd57600080fd5b505af1158015612511573d6000803e3d6000fd5b505050506040513d602081101561252757600080fd5b505160018981015490890154604080517f65098bb3000000000000000000000000000000000000000000000000000000008152600481018b905263ffffffff9384166024820152604481018a9052929091166064830152608482018d905251919550600160a060020a038616916365098bb39160a4808201926020929091908290030181600087803b1580156125bc57600080fd5b505af11580156125d0573d6000803e3d6000fd5b505050506040513d60208110156125e657600080fd5b505192506125f583600261175f565b9c9b505050505050505050505050565b7f42616e636f724e6574776f726b0000000000000000000000000000000000000081565b7f42616e636f7247617350726963654c696d69740000000000000000000000000081565b600181565b600a5490565b600c54640100000000900463ffffffff1681565b60008060008060008030600160a060020a0316600260009054906101000a9004600160a060020a0316600160a060020a0316638da5cb5b6040518163ffffffff1660e060020a028152600401602060405180830381600087803b1580156126d257600080fd5b505af11580156126e6573d6000803e3d6000fd5b505050506040513d60208110156126fc57600080fd5b5051600160a060020a03161461270e57fe5b600160a060020a0388166000908152600b602052604090206001015488906601000000000000900460ff16151561274457600080fd5b600160a060020a0389166000908152600b60205260409020600181015490965065010000000000900460ff16151561277b57600080fd5b600260009054906101000a9004600160a060020a0316600160a060020a03166318160ddd6040518163ffffffff1660e060020a028152600401602060405180830381600087803b1580156127ce57600080fd5b505af11580156127e2573d6000803e3d6000fd5b505050506040513d60208110156127f857600080fd5b5051945061280589612ace565b600754604080517fbb34534c0000000000000000000000000000000000000000000000000000000081527f42616e636f72466f726d756c610000000000000000000000000000000000000060048201529051929650600160a060020a039091169163bb34534c916024808201926020929091908290030181600087803b15801561288e57600080fd5b505af11580156128a2573d6000803e3d6000fd5b505050506040513d60208110156128b857600080fd5b50516001870154604080517f29a00e7c000000000000000000000000000000000000000000000000000000008152600481018990526024810188905263ffffffff9092166044830152606482018b905251919450600160a060020a038516916329a00e7c916084808201926020929091908290030181600087803b1580156120e257600080fd5b600054600160a060020a0316331461295357fe5b80600160a060020a038116151561296957600080fd5b81600160a060020a03811630141561298057600080fd5b50506007805473ffffffffffffffffffffffffffffffffffffffff1916600160a060020a0392909216919091179055565b600c546c01000000000000000000000000900460ff1681565b600854600160a060020a031681565b600454600160a060020a031633146129f057600080fd5b600454600354604051600160a060020a0392831692909116907fbe4cc281795971a471c980e842627a7f1ea3892ddfce8c5b6357cd2611c1973290600090a3600480546003805473ffffffffffffffffffffffffffffffffffffffff19908116600160a060020a03841617909155169055565b600054600160a060020a03163314612a7757fe5b8060028151118015612a8b57506015815111155b8015612a9c57508051600290066001145b1515612aa757600080fd5b8151612aba90600a906020850190613529565b505050565b600154600160a060020a031681565b600160a060020a0381166000908152600b6020526040812060010154819083906601000000000000900460ff161515612b0657600080fd5b600160a060020a0384166000908152600b602052604090206001810154909250640100000000900460ff16612bc757604080517f70a082310000000000000000000000000000000000000000000000000000000081523060048201529051600160a060020a038616916370a082319160248083019260209291908290030181600087803b158015612b9657600080fd5b505af1158015612baa573d6000803e3d6000fd5b505050506040513d6020811015612bc057600080fd5b5051612bca565b81545b949350505050565b600054600160a060020a0316331480612bf55750600354600160a060020a031633145b1515612c0057600080fd5b600354600160a060020a0382811691161415612c1b57600080fd5b6004805473ffffffffffffffffffffffffffffffffffffffff1916600160a060020a0392909216919091179055565b600a805482908110610c1857fe5b600054600160a060020a0316331480612c7b5750600354600160a060020a031633145b1515612c8657600080fd5b8060008163ffffffff1610158015612cb25750600c5463ffffffff640100000000909104811690821611155b1515612cbd57600080fd5b600c546040805163ffffffff6801000000000000000090930483168152918416602083015280517f81cd2ffb37dd237c0e4e2a3de5265fcf9deb43d3e7801e80db9f1ccfba7ee6009281900390910190a150600c805463ffffffff90921668010000000000000000026bffffffff000000000000000019909216919091179055565b600054600160a060020a03163314612d5357fe5b600054600160a060020a0382811691161415612d6e57600080fd5b6001805473ffffffffffffffffffffffffffffffffffffffff1916600160a060020a0392909216919091179055565b600254600160a060020a031681565b600080600080612dbc878761266c565b92508215801590612dcd5750848310155b1515612dd857600080fd5b600160a060020a0387166000908152600b602052604090206001810154909250640100000000900460ff1615612e17578154612e14908761343c565b82555b604080517f23b872dd000000000000000000000000000000000000000000000000000000008152336004820152306024820152604481018890529051600160a060020a038916916323b872dd9160648083019260209291908290030181600087803b158015612e8557600080fd5b505af1158015612e99573d6000803e3d6000fd5b505050506040513d6020811015612eaf57600080fd5b50511515612eb957fe5b600254604080517f867904b4000000000000000000000000000000000000000000000000000000008152336004820152602481018690529051600160a060020a039092169163867904b49160448082019260009290919082900301818387803b158015612f2557600080fd5b505af1158015612f39573d6000803e3d6000fd5b50505050612f4c8361150185600161175f565b600254909150612f69908890600160a060020a031688868561345d565b86600160a060020a03167f8a6a7f53b3c8fa1dc4b83e3f1be668c1b251ff8d44cdcb83eb3acec3fec6a788600260009054906101000a9004600160a060020a0316600160a060020a03166318160ddd6040518163ffffffff1660e060020a028152600401602060405180830381600087803b158015612fe757600080fd5b505af1158015612ffb573d6000803e3d6000fd5b505050506040513d602081101561301157600080fd5b505161301c8a612ace565b600186015460408051938452602084019290925263ffffffff1682820152519081900360600190a2509095945050505050565b600254604080517f70a08231000000000000000000000000000000000000000000000000000000008152336004820152905160009283928392839283928392600160a060020a03909216916370a082319160248082019260209290919082900301818787803b1580156130c157600080fd5b505af11580156130d5573d6000803e3d6000fd5b505050506040513d60208110156130eb57600080fd5b50518811156130f957600080fd5b6131038989611e29565b945084158015906131145750868510155b151561311f57600080fd5b600260009054906101000a9004600160a060020a0316600160a060020a03166318160ddd6040518163ffffffff1660e060020a028152600401602060405180830381600087803b15801561317257600080fd5b505af1158015613186573d6000803e3d6000fd5b505050506040513d602081101561319c57600080fd5b505193506131a989612ace565b9250828510806131c2575082851480156131c257508388145b15156131ca57fe5b600160a060020a0389166000908152600b602052604090206001810154909250640100000000900460ff1615613209578154613206908661344b565b82555b600254604080517fa24835d1000000000000000000000000000000000000000000000000000000008152336004820152602481018b90529051600160a060020a039092169163a24835d19160448082019260009290919082900301818387803b15801561327557600080fd5b505af1158015613289573d6000803e3d6000fd5b5050604080517fa9059cbb000000000000000000000000000000000000000000000000000000008152336004820152602481018990529051600160a060020a038d16935063a9059cbb925060448083019260209291908290030181600087803b1580156132f557600080fd5b505af1158015613309573d6000803e3d6000fd5b505050506040513d602081101561331f57600080fd5b5051151561332957fe5b6133388561150187600161175f565b60025490915061335490600160a060020a03168a8a888561345d565b88600160a060020a03167f8a6a7f53b3c8fa1dc4b83e3f1be668c1b251ff8d44cdcb83eb3acec3fec6a788600260009054906101000a9004600160a060020a0316600160a060020a03166318160ddd6040518163ffffffff1660e060020a028152600401602060405180830381600087803b1580156133d257600080fd5b505af11580156133e6573d6000803e3d6000fd5b505050506040513d60208110156133fc57600080fd5b50516134078c612ace565b600186015460408051938452602084019290925263ffffffff1682820152519081900360600190a25092979650505050505050565b600082820183811015610ca257fe5b60008183101561345757fe5b50900390565b7f800000000000000000000000000000000000000000000000000000000000000081111561348757fe5b604080518481526020810184905280820183905290513391600160a060020a0387811692908916917f276856b36cbc45526a0ba64f44611557a2a8b68662c5388e9fe6d72e86e1c8cb919081900360600190a45050505050565b60008282028315806134fd57508284828115156134fa57fe5b04145b1515610ca257fe5b815481835581811115612aba57600083815260209020612aba91810190830161359b565b82805482825590600052602060002090810192821561358b579160200282015b8281111561358b578251825473ffffffffffffffffffffffffffffffffffffffff1916600160a060020a03909116178255602090920191600190910190613549565b506135979291506135b5565b5090565b611e2691905b8082111561359757600081556001016135a1565b611e2691905b8082111561359757805473ffffffffffffffffffffffffffffffffffffffff191681556001016135bb5600a165627a7a72305820cbd95b1480bc4548be6d35c3e65d43ced4e7a2940130cc4bb7c28c021e2424a00029",
  "source": "pragma solidity ^0.4.23;\nimport './interfaces/IBancorConverter.sol';\nimport './interfaces/IBancorFormula.sol';\nimport '../IBancorNetwork.sol';\nimport '../ContractIds.sol';\nimport '../FeatureIds.sol';\nimport '../utility/Managed.sol';\nimport '../utility/Utils.sol';\nimport '../utility/interfaces/IContractRegistry.sol';\nimport '../utility/interfaces/IContractFeatures.sol';\nimport '../token/SmartTokenController.sol';\nimport '../token/interfaces/ISmartToken.sol';\nimport '../token/interfaces/IEtherToken.sol';\n\n/*\n    Bancor Converter v0.10\n\n    The Bancor version of the token converter, allows conversion between a smart token and other ERC20 tokens and between different ERC20 tokens and themselves.\n\n    ERC20 connector balance can be virtual, meaning that the calculations are based on the virtual balance instead of relying on\n    the actual connector balance. This is a security mechanism that prevents the need to keep a very large (and valuable) balance in a single contract.\n\n    The converter is upgradable (just like any SmartTokenController).\n\n    WARNING: It is NOT RECOMMENDED to use the converter with Smart Tokens that have less than 8 decimal digits\n             or with very small numbers because of precision loss\n\n    Open issues:\n    - Front-running attacks are currently mitigated by the following mechanisms:\n        - minimum return argument for each conversion provides a way to define a minimum/maximum price for the transaction\n        - gas price limit prevents users from having control over the order of execution\n        - gas price limit check can be skipped if the transaction comes from a trusted, whitelisted signer\n      Other potential solutions might include a commit/reveal based schemes\n    - Possibly add getters for the connector fields so that the client won't need to rely on the order in the struct\n*/\ncontract BancorConverter is IBancorConverter, SmartTokenController, Managed, ContractIds, FeatureIds {\n    uint32 private constant MAX_WEIGHT = 1000000;\n    uint64 private constant MAX_CONVERSION_FEE = 1000000;\n\n    struct Connector {\n        uint256 virtualBalance;         // connector virtual balance\n        uint32 weight;                  // connector weight, represented in ppm, 1-1000000\n        bool isVirtualBalanceEnabled;   // true if virtual balance is enabled, false if not\n        bool isPurchaseEnabled;         // is purchase of the smart token enabled with the connector, can be set by the owner\n        bool isSet;                     // used to tell if the mapping element is defined\n    }\n\n    string public version = '0.10';\n    string public converterType = 'bancor';\n\n    IContractRegistry public registry;                  // contract registry contract\n    IWhitelist public conversionWhitelist;              // whitelist contract with list of addresses that are allowed to use the converter\n    IERC20Token[] public connectorTokens;               // ERC20 standard token addresses\n    IERC20Token[] public quickBuyPath;                  // conversion path that's used in order to buy the token with ETH\n    mapping (address => Connector) public connectors;   // connector token addresses -> connector data\n    uint32 private totalConnectorWeight = 0;            // used to efficiently prevent increasing the total connector weight above 100%\n    uint32 public maxConversionFee = 0;                 // maximum conversion fee for the lifetime of the contract,\n                                                        // represented in ppm, 0...1000000 (0 = no fee, 100 = 0.01%, 1000000 = 100%)\n    uint32 public conversionFee = 0;                    // current conversion fee, represented in ppm, 0...maxConversionFee\n    bool public conversionsEnabled = true;              // true if token conversions is enabled, false if not\n    IERC20Token[] private convertPath;\n\n    // triggered when a conversion between two tokens occurs\n    event Conversion(\n        address indexed _fromToken,\n        address indexed _toToken,\n        address indexed _trader,\n        uint256 _amount,\n        uint256 _return,\n        int256 _conversionFee\n    );\n    // triggered after a conversion with new price data\n    event PriceDataUpdate(\n        address indexed _connectorToken,\n        uint256 _tokenSupply,\n        uint256 _connectorBalance,\n        uint32 _connectorWeight\n    );\n    // triggered when the conversion fee is updated\n    event ConversionFeeUpdate(uint32 _prevFee, uint32 _newFee);\n\n    /**\n        @dev constructor\n\n        @param  _token              smart token governed by the converter\n        @param  _registry           address of a contract registry contract\n        @param  _maxConversionFee   maximum conversion fee, represented in ppm\n        @param  _connectorToken     optional, initial connector, allows defining the first connector at deployment time\n        @param  _connectorWeight    optional, weight for the initial connector\n    */\n    constructor(\n        ISmartToken _token,\n        IContractRegistry _registry,\n        uint32 _maxConversionFee,\n        IERC20Token _connectorToken,\n        uint32 _connectorWeight\n    )\n        public\n        SmartTokenController(_token)\n        validAddress(_registry)\n        validMaxConversionFee(_maxConversionFee)\n    {\n        registry = _registry;\n        IContractFeatures features = IContractFeatures(registry.addressOf(ContractIds.CONTRACT_FEATURES));\n\n        // initialize supported features\n        if (features != address(0))\n            features.enableFeatures(FeatureIds.CONVERTER_CONVERSION_WHITELIST, true);\n\n        maxConversionFee = _maxConversionFee;\n\n        if (_connectorToken != address(0))\n            addConnector(_connectorToken, _connectorWeight, false);\n    }\n\n    // validates a connector token address - verifies that the address belongs to one of the connector tokens\n    modifier validConnector(IERC20Token _address) {\n        require(connectors[_address].isSet);\n        _;\n    }\n\n    // validates a token address - verifies that the address belongs to one of the convertible tokens\n    modifier validToken(IERC20Token _address) {\n        require(_address == token || connectors[_address].isSet);\n        _;\n    }\n\n    // validates maximum conversion fee\n    modifier validMaxConversionFee(uint32 _conversionFee) {\n        require(_conversionFee >= 0 && _conversionFee <= MAX_CONVERSION_FEE);\n        _;\n    }\n\n    // validates conversion fee\n    modifier validConversionFee(uint32 _conversionFee) {\n        require(_conversionFee >= 0 && _conversionFee <= maxConversionFee);\n        _;\n    }\n\n    // validates connector weight range\n    modifier validConnectorWeight(uint32 _weight) {\n        require(_weight > 0 && _weight <= MAX_WEIGHT);\n        _;\n    }\n\n    // validates a conversion path - verifies that the number of elements is odd and that maximum number of 'hops' is 10\n    modifier validConversionPath(IERC20Token[] _path) {\n        require(_path.length > 2 && _path.length <= (1 + 2 * 10) && _path.length % 2 == 1);\n        _;\n    }\n\n    // allows execution only when conversions aren't disabled\n    modifier conversionsAllowed {\n        assert(conversionsEnabled);\n        _;\n    }\n\n    // allows execution by the BancorNetwork contract only\n    modifier bancorNetworkOnly {\n        IBancorNetwork bancorNetwork = IBancorNetwork(registry.addressOf(ContractIds.BANCOR_NETWORK));\n        require(msg.sender == address(bancorNetwork));\n        _;\n    }\n\n    /**\n        @dev returns the number of connector tokens defined\n\n        @return number of connector tokens\n    */\n    function connectorTokenCount() public view returns (uint16) {\n        return uint16(connectorTokens.length);\n    }\n\n    /*\n        @dev allows the owner to update the contract registry contract address\n\n        @param _registry   address of a contract registry contract\n    */\n    function setRegistry(IContractRegistry _registry)\n        public\n        ownerOnly\n        validAddress(_registry)\n        notThis(_registry)\n    {\n        registry = _registry;\n    }\n\n    /*\n        @dev allows the owner to update & enable the conversion whitelist contract address\n        when set, only addresses that are whitelisted are actually allowed to use the converter\n        note that the whitelist check is actually done by the BancorNetwork contract\n\n        @param _whitelist    address of a whitelist contract\n    */\n    function setConversionWhitelist(IWhitelist _whitelist)\n        public\n        ownerOnly\n        notThis(_whitelist)\n    {\n        conversionWhitelist = _whitelist;\n    }\n\n    /*\n        @dev allows the manager to update the quick buy path\n\n        @param _path    new quick buy path, see conversion path format in the bancorNetwork contract\n    */\n    function setQuickBuyPath(IERC20Token[] _path)\n        public\n        ownerOnly\n        validConversionPath(_path)\n    {\n        quickBuyPath = _path;\n    }\n\n    /*\n        @dev allows the manager to clear the quick buy path\n    */\n    function clearQuickBuyPath() public ownerOnly {\n        quickBuyPath.length = 0;\n    }\n\n    /**\n        @dev returns the length of the quick buy path array\n\n        @return quick buy path length\n    */\n    function getQuickBuyPathLength() public view returns (uint256) {\n        return quickBuyPath.length;\n    }\n\n    /**\n        @dev disables the entire conversion functionality\n        this is a safety mechanism in case of a emergency\n        can only be called by the manager\n\n        @param _disable true to disable conversions, false to re-enable them\n    */\n    function disableConversions(bool _disable) public ownerOrManagerOnly {\n        conversionsEnabled = !_disable;\n    }\n\n    /**\n        @dev updates the current conversion fee\n        can only be called by the manager\n\n        @param _conversionFee new conversion fee, represented in ppm\n    */\n    function setConversionFee(uint32 _conversionFee)\n        public\n        ownerOrManagerOnly\n        validConversionFee(_conversionFee)\n    {\n        emit ConversionFeeUpdate(conversionFee, _conversionFee);\n        conversionFee = _conversionFee;\n    }\n\n    /*\n        @dev given a return amount, returns the amount minus the conversion fee\n\n        @param _amount      return amount\n        @param _magnitude   1 for standard conversion, 2 for cross connector conversion\n\n        @return return amount minus conversion fee\n    */\n    function getFinalAmount(uint256 _amount, uint8 _magnitude) public view returns (uint256) {\n        return safeMul(_amount, (MAX_CONVERSION_FEE - conversionFee) ** _magnitude) / MAX_CONVERSION_FEE ** _magnitude;\n    }\n\n    /**\n        @dev defines a new connector for the token\n        can only be called by the owner while the converter is inactive\n\n        @param _token                  address of the connector token\n        @param _weight                 constant connector weight, represented in ppm, 1-1000000\n        @param _enableVirtualBalance   true to enable virtual balance for the connector, false to disable it\n    */\n    function addConnector(IERC20Token _token, uint32 _weight, bool _enableVirtualBalance)\n        public\n        ownerOnly\n        inactive\n        validAddress(_token)\n        notThis(_token)\n        validConnectorWeight(_weight)\n    {\n        require(_token != token && !connectors[_token].isSet && totalConnectorWeight + _weight <= MAX_WEIGHT); // validate input\n\n        connectors[_token].virtualBalance = 0;\n        connectors[_token].weight = _weight;\n        connectors[_token].isVirtualBalanceEnabled = _enableVirtualBalance;\n        connectors[_token].isPurchaseEnabled = true;\n        connectors[_token].isSet = true;\n        connectorTokens.push(_token);\n        totalConnectorWeight += _weight;\n    }\n\n    /**\n        @dev updates one of the token connectors\n        can only be called by the owner\n\n        @param _connectorToken         address of the connector token\n        @param _weight                 constant connector weight, represented in ppm, 1-1000000\n        @param _enableVirtualBalance   true to enable virtual balance for the connector, false to disable it\n        @param _virtualBalance         new connector's virtual balance\n    */\n    function updateConnector(IERC20Token _connectorToken, uint32 _weight, bool _enableVirtualBalance, uint256 _virtualBalance)\n        public\n        ownerOnly\n        validConnector(_connectorToken)\n        validConnectorWeight(_weight)\n    {\n        Connector storage connector = connectors[_connectorToken];\n        require(totalConnectorWeight - connector.weight + _weight <= MAX_WEIGHT); // validate input\n\n        totalConnectorWeight = totalConnectorWeight - connector.weight + _weight;\n        connector.weight = _weight;\n        connector.isVirtualBalanceEnabled = _enableVirtualBalance;\n        connector.virtualBalance = _virtualBalance;\n    }\n\n    /**\n        @dev disables purchasing with the given connector token in case the connector token got compromised\n        can only be called by the owner\n        note that selling is still enabled regardless of this flag and it cannot be disabled by the owner\n\n        @param _connectorToken  connector token contract address\n        @param _disable         true to disable the token, false to re-enable it\n    */\n    function disableConnectorPurchases(IERC20Token _connectorToken, bool _disable)\n        public\n        ownerOnly\n        validConnector(_connectorToken)\n    {\n        connectors[_connectorToken].isPurchaseEnabled = !_disable;\n    }\n\n    /**\n        @dev returns the connector's virtual balance if one is defined, otherwise returns the actual balance\n\n        @param _connectorToken  connector token contract address\n\n        @return connector balance\n    */\n    function getConnectorBalance(IERC20Token _connectorToken)\n        public\n        view\n        validConnector(_connectorToken)\n        returns (uint256)\n    {\n        Connector storage connector = connectors[_connectorToken];\n        return connector.isVirtualBalanceEnabled ? connector.virtualBalance : _connectorToken.balanceOf(this);\n    }\n\n    /**\n        @dev returns the expected return for converting a specific amount of _fromToken to _toToken\n\n        @param _fromToken  ERC20 token to convert from\n        @param _toToken    ERC20 token to convert to\n        @param _amount     amount to convert, in fromToken\n\n        @return expected conversion return amount\n    */\n    function getReturn(IERC20Token _fromToken, IERC20Token _toToken, uint256 _amount) public view returns (uint256) {\n        require(_fromToken != _toToken); // validate input\n\n        // conversion between the token and one of its connectors\n        if (_toToken == token)\n            return getPurchaseReturn(_fromToken, _amount);\n        else if (_fromToken == token)\n            return getSaleReturn(_toToken, _amount);\n\n        // conversion between 2 connectors\n        return getCrossConnectorReturn(_fromToken, _toToken, _amount);\n    }\n\n    /**\n        @dev returns the expected return for buying the token for a connector token\n\n        @param _connectorToken  connector token contract address\n        @param _depositAmount   amount to deposit (in the connector token)\n\n        @return expected purchase return amount\n    */\n    function getPurchaseReturn(IERC20Token _connectorToken, uint256 _depositAmount)\n        public\n        view\n        active\n        validConnector(_connectorToken)\n        returns (uint256)\n    {\n        Connector storage connector = connectors[_connectorToken];\n        require(connector.isPurchaseEnabled); // validate input\n\n        uint256 tokenSupply = token.totalSupply();\n        uint256 connectorBalance = getConnectorBalance(_connectorToken);\n        IBancorFormula formula = IBancorFormula(registry.addressOf(ContractIds.BANCOR_FORMULA));\n        uint256 amount = formula.calculatePurchaseReturn(tokenSupply, connectorBalance, connector.weight, _depositAmount);\n\n        // return the amount minus the conversion fee\n        return getFinalAmount(amount, 1);\n    }\n\n    /**\n        @dev returns the expected return for selling the token for one of its connector tokens\n\n        @param _connectorToken  connector token contract address\n        @param _sellAmount      amount to sell (in the smart token)\n\n        @return expected sale return amount\n    */\n    function getSaleReturn(IERC20Token _connectorToken, uint256 _sellAmount)\n        public\n        view\n        active\n        validConnector(_connectorToken)\n        returns (uint256)\n    {\n        Connector storage connector = connectors[_connectorToken];\n        uint256 tokenSupply = token.totalSupply();\n        uint256 connectorBalance = getConnectorBalance(_connectorToken);\n        IBancorFormula formula = IBancorFormula(registry.addressOf(ContractIds.BANCOR_FORMULA));\n        uint256 amount = formula.calculateSaleReturn(tokenSupply, connectorBalance, connector.weight, _sellAmount);\n\n        // return the amount minus the conversion fee\n        return getFinalAmount(amount, 1);\n    }\n\n    /**\n        @dev returns the expected return for selling one of the connector tokens for another connector token\n\n        @param _fromConnectorToken  contract address of the connector token to convert from\n        @param _toConnectorToken    contract address of the connector token to convert to\n        @param _sellAmount          amount to sell (in the from connector token)\n\n        @return expected sale return amount (in the to connector token)\n    */\n    function getCrossConnectorReturn(IERC20Token _fromConnectorToken, IERC20Token _toConnectorToken, uint256 _sellAmount)\n        public\n        view\n        active\n        validConnector(_fromConnectorToken)\n        validConnector(_toConnectorToken)\n        returns (uint256)\n    {\n        Connector storage fromConnector = connectors[_fromConnectorToken];\n        Connector storage toConnector = connectors[_toConnectorToken];\n        require(toConnector.isPurchaseEnabled); // validate input\n\n        uint256 fromConnectorBalance = getConnectorBalance(_fromConnectorToken);\n        uint256 toConnectorBalance = getConnectorBalance(_toConnectorToken);\n\n        IBancorFormula formula = IBancorFormula(registry.addressOf(ContractIds.BANCOR_FORMULA));\n        uint256 amount = formula.calculateCrossConnectorReturn(fromConnectorBalance, fromConnector.weight, toConnectorBalance, toConnector.weight, _sellAmount);\n\n        // return the amount minus the conversion fee\n        // the fee is higher (magnitude = 2) since cross connector conversion equals 2 conversions (from / to the smart token)\n        return getFinalAmount(amount, 2);\n    }\n\n    /**\n        @dev converts a specific amount of _fromToken to _toToken\n\n        @param _fromToken  ERC20 token to convert from\n        @param _toToken    ERC20 token to convert to\n        @param _amount     amount to convert, in fromToken\n        @param _minReturn  if the conversion results in an amount smaller than the minimum return - it is cancelled, must be nonzero\n\n        @return conversion return amount\n    */\n    function convertInternal(IERC20Token _fromToken, IERC20Token _toToken, uint256 _amount, uint256 _minReturn)\n        public\n        bancorNetworkOnly\n        conversionsAllowed\n        greaterThanZero(_minReturn)\n        returns (uint256)\n    {\n        require(_fromToken != _toToken); // validate input\n\n        // conversion between the token and one of its connectors\n        if (_toToken == token)\n            return buy(_fromToken, _amount, _minReturn);\n        else if (_fromToken == token)\n            return sell(_toToken, _amount, _minReturn);\n\n        // conversion between 2 connectors\n        uint256 amount = getCrossConnectorReturn(_fromToken, _toToken, _amount);\n        // ensure the trade gives something in return and meets the minimum requested amount\n        require(amount != 0 && amount >= _minReturn);\n\n        // update the source token virtual balance if relevant\n        Connector storage fromConnector = connectors[_fromToken];\n        if (fromConnector.isVirtualBalanceEnabled)\n            fromConnector.virtualBalance = safeAdd(fromConnector.virtualBalance, _amount);\n\n        // update the target token virtual balance if relevant\n        Connector storage toConnector = connectors[_toToken];\n        if (toConnector.isVirtualBalanceEnabled)\n            toConnector.virtualBalance = safeSub(toConnector.virtualBalance, amount);\n\n        // ensure that the trade won't deplete the connector balance\n        uint256 toConnectorBalance = getConnectorBalance(_toToken);\n        assert(amount < toConnectorBalance);\n\n        // transfer funds from the caller in the from connector token\n        assert(_fromToken.transferFrom(msg.sender, this, _amount));\n        // transfer funds to the caller in the to connector token\n        // the transfer might fail if the actual connector balance is smaller than the virtual balance\n        assert(_toToken.transfer(msg.sender, amount));\n\n        // calculate conversion fee and dispatch the conversion event\n        // the fee is higher (magnitude = 2) since cross connector conversion equals 2 conversions (from / to the smart token)\n        uint256 feeAmount = safeSub(amount, getFinalAmount(amount, 2));\n        dispatchConversionEvent(_fromToken, _toToken, _amount, amount, feeAmount);\n\n        // dispatch price data updates for the smart token / both connectors\n        emit PriceDataUpdate(_fromToken, token.totalSupply(), getConnectorBalance(_fromToken), fromConnector.weight);\n        emit PriceDataUpdate(_toToken, token.totalSupply(), getConnectorBalance(_toToken), toConnector.weight);\n        return amount;\n    }\n\n    /**\n        @dev converts a specific amount of _fromToken to _toToken\n\n        @param _fromToken  ERC20 token to convert from\n        @param _toToken    ERC20 token to convert to\n        @param _amount     amount to convert, in fromToken\n        @param _minReturn  if the conversion results in an amount smaller than the minimum return - it is cancelled, must be nonzero\n\n        @return conversion return amount\n    */\n    function convert(IERC20Token _fromToken, IERC20Token _toToken, uint256 _amount, uint256 _minReturn) public returns (uint256) {\n        convertPath = [_fromToken, token, _toToken];\n        return quickConvert(convertPath, _amount, _minReturn);\n    }\n\n    /**\n        @dev buys the token by depositing one of its connector tokens\n\n        @param _connectorToken  connector token contract address\n        @param _depositAmount   amount to deposit (in the connector token)\n        @param _minReturn       if the conversion results in an amount smaller than the minimum return - it is cancelled, must be nonzero\n\n        @return buy return amount\n    */\n    function buy(IERC20Token _connectorToken, uint256 _depositAmount, uint256 _minReturn) internal returns (uint256) {\n        uint256 amount = getPurchaseReturn(_connectorToken, _depositAmount);\n        // ensure the trade gives something in return and meets the minimum requested amount\n        require(amount != 0 && amount >= _minReturn);\n\n        // update virtual balance if relevant\n        Connector storage connector = connectors[_connectorToken];\n        if (connector.isVirtualBalanceEnabled)\n            connector.virtualBalance = safeAdd(connector.virtualBalance, _depositAmount);\n\n        // transfer funds from the caller in the connector token\n        assert(_connectorToken.transferFrom(msg.sender, this, _depositAmount));\n        // issue new funds to the caller in the smart token\n        token.issue(msg.sender, amount);\n\n        // calculate conversion fee and dispatch the conversion event\n        uint256 feeAmount = safeSub(amount, getFinalAmount(amount, 1));\n        dispatchConversionEvent(_connectorToken, token, _depositAmount, amount, feeAmount);\n\n        // dispatch price data update for the smart token/connector\n        emit PriceDataUpdate(_connectorToken, token.totalSupply(), getConnectorBalance(_connectorToken), connector.weight);\n        return amount;\n    }\n\n    /**\n        @dev sells the token by withdrawing from one of its connector tokens\n\n        @param _connectorToken  connector token contract address\n        @param _sellAmount      amount to sell (in the smart token)\n        @param _minReturn       if the conversion results in an amount smaller the minimum return - it is cancelled, must be nonzero\n\n        @return sell return amount\n    */\n    function sell(IERC20Token _connectorToken, uint256 _sellAmount, uint256 _minReturn) internal returns (uint256) {\n        require(_sellAmount <= token.balanceOf(msg.sender)); // validate input\n\n        uint256 amount = getSaleReturn(_connectorToken, _sellAmount);\n        // ensure the trade gives something in return and meets the minimum requested amount\n        require(amount != 0 && amount >= _minReturn);\n\n        // ensure that the trade will only deplete the connector balance if the total supply is depleted as well\n        uint256 tokenSupply = token.totalSupply();\n        uint256 connectorBalance = getConnectorBalance(_connectorToken);\n        assert(amount < connectorBalance || (amount == connectorBalance && _sellAmount == tokenSupply));\n\n        // update virtual balance if relevant\n        Connector storage connector = connectors[_connectorToken];\n        if (connector.isVirtualBalanceEnabled)\n            connector.virtualBalance = safeSub(connector.virtualBalance, amount);\n\n        // destroy _sellAmount from the caller's balance in the smart token\n        token.destroy(msg.sender, _sellAmount);\n        // transfer funds to the caller in the connector token\n        // the transfer might fail if the actual connector balance is smaller than the virtual balance\n        assert(_connectorToken.transfer(msg.sender, amount));\n\n        // calculate conversion fee and dispatch the conversion event\n        uint256 feeAmount = safeSub(amount, getFinalAmount(amount, 1));\n        dispatchConversionEvent(token, _connectorToken, _sellAmount, amount, feeAmount);\n\n        // dispatch price data update for the smart token/connector\n        emit PriceDataUpdate(_connectorToken, token.totalSupply(), getConnectorBalance(_connectorToken), connector.weight);\n        return amount;\n    }\n\n    /**\n        @dev converts the token to any other token in the bancor network by following a predefined conversion path\n        note that when converting from an ERC20 token (as opposed to a smart token), allowance must be set beforehand\n\n        @param _path        conversion path, see conversion path format in the BancorNetwork contract\n        @param _amount      amount to convert from (in the initial source token)\n        @param _minReturn   if the conversion results in an amount smaller than the minimum return - it is cancelled, must be nonzero\n\n        @return tokens issued in return\n    */\n    function quickConvert(IERC20Token[] _path, uint256 _amount, uint256 _minReturn)\n        public\n        payable\n        validConversionPath(_path)\n        returns (uint256)\n    {\n        return quickConvertPrioritized(_path, _amount, _minReturn, 0x0, 0x0, 0x0, 0x0);\n    }\n\n    /**\n        @dev converts the token to any other token in the bancor network by following a predefined conversion path\n        note that when converting from an ERC20 token (as opposed to a smart token), allowance must be set beforehand\n\n        @param _path        conversion path, see conversion path format in the BancorNetwork contract\n        @param _amount      amount to convert from (in the initial source token)\n        @param _minReturn   if the conversion results in an amount smaller than the minimum return - it is cancelled, must be nonzero\n        @param _block       if the current block exceeded the given parameter - it is cancelled\n        @param _v           (signature[128:130]) associated with the signer address and helps validating if the signature is legit\n        @param _r           (signature[0:64]) associated with the signer address and helps validating if the signature is legit\n        @param _s           (signature[64:128]) associated with the signer address and helps validating if the signature is legit\n\n        @return tokens issued in return\n    */\n    function quickConvertPrioritized(IERC20Token[] _path, uint256 _amount, uint256 _minReturn, uint256 _block, uint8 _v, bytes32 _r, bytes32 _s)\n        public\n        payable\n        validConversionPath(_path)\n        returns (uint256)\n    {\n        IERC20Token fromToken = _path[0];\n        IBancorNetwork bancorNetwork = IBancorNetwork(registry.addressOf(ContractIds.BANCOR_NETWORK));\n\n        // we need to transfer the source tokens from the caller to the BancorNetwork contract,\n        // so it can execute the conversion on behalf of the caller\n        if (msg.value == 0) {\n            // not ETH, send the source tokens to the BancorNetwork contract\n            // if the token is the smart token, no allowance is required - destroy the tokens\n            // from the caller and issue them to the BancorNetwork contract\n            if (fromToken == token) {\n                token.destroy(msg.sender, _amount); // destroy _amount tokens from the caller's balance in the smart token\n                token.issue(bancorNetwork, _amount); // issue _amount new tokens to the BancorNetwork contract\n            } else {\n                // otherwise, we assume we already have allowance, transfer the tokens directly to the BancorNetwork contract\n                assert(fromToken.transferFrom(msg.sender, bancorNetwork, _amount));\n            }\n        }\n\n        // execute the conversion and pass on the ETH with the call\n        return bancorNetwork.convertForPrioritized2.value(msg.value)(_path, _amount, _minReturn, msg.sender, _block, _v, _r, _s);\n    }\n\n    // deprecated, backward compatibility\n    function change(IERC20Token _fromToken, IERC20Token _toToken, uint256 _amount, uint256 _minReturn) public returns (uint256) {\n        return convertInternal(_fromToken, _toToken, _amount, _minReturn);\n    }\n\n    /**\n        @dev helper, dispatches the Conversion event\n\n        @param _fromToken       ERC20 token to convert from\n        @param _toToken         ERC20 token to convert to\n        @param _amount          amount purchased/sold (in the source token)\n        @param _returnAmount    amount returned (in the target token)\n    */\n    function dispatchConversionEvent(IERC20Token _fromToken, IERC20Token _toToken, uint256 _amount, uint256 _returnAmount, uint256 _feeAmount) private {\n        // fee amount is converted to 255 bits -\n        // negative amount means the fee is taken from the source token, positive amount means its taken from the target token\n        // currently the fee is always taken from the target token\n        // since we convert it to a signed number, we first ensure that it's capped at 255 bits to prevent overflow\n        assert(_feeAmount <= 2 ** 255);\n        emit Conversion(_fromToken, _toToken, msg.sender, _amount, _returnAmount, int256(_feeAmount));\n    }\n\n    /**\n        @dev fallback, buys the smart token with ETH\n        note that the purchase will use the price at the time of the purchase\n    */\n    function() payable public {\n        quickConvert(quickBuyPath, msg.value, 1);\n    }\n}\n",
  "sourcePath": "bancor-contracts/solidity/contracts/converter/BancorConverter.sol",
  "compiler": {
    "name": "solc",
    "version": "0.4.24+commit.e67f0147.Emscripten.clang"
  },
  "schemaVersion": "3.0.0-beta.0",
  "updatedAt": "2018-09-11T01:19:19.846Z"
}