{
  "contractName": "BancorFormula",
  "abi": [
    {
      "constant": true,
      "inputs": [],
      "name": "version",
      "outputs": [
        {
          "name": "",
          "type": "string"
        }
      ],
      "payable": false,
      "stateMutability": "view",
      "type": "function"
    },
    {
      "constant": true,
      "inputs": [
        {
          "name": "_supply",
          "type": "uint256"
        },
        {
          "name": "_connectorBalance",
          "type": "uint256"
        },
        {
          "name": "_connectorWeight",
          "type": "uint32"
        },
        {
          "name": "_depositAmount",
          "type": "uint256"
        }
      ],
      "name": "calculatePurchaseReturn",
      "outputs": [
        {
          "name": "",
          "type": "uint256"
        }
      ],
      "payable": false,
      "stateMutability": "view",
      "type": "function"
    },
    {
      "constant": true,
      "inputs": [
        {
          "name": "_supply",
          "type": "uint256"
        },
        {
          "name": "_connectorBalance",
          "type": "uint256"
        },
        {
          "name": "_connectorWeight",
          "type": "uint32"
        },
        {
          "name": "_sellAmount",
          "type": "uint256"
        }
      ],
      "name": "calculateSaleReturn",
      "outputs": [
        {
          "name": "",
          "type": "uint256"
        }
      ],
      "payable": false,
      "stateMutability": "view",
      "type": "function"
    }
  ],
  "bytecode": "0x60c0604052600360808190527f302e33000000000000000000000000000000000000000000000000000000000060a090815261003e916000919061082b565b506040805180820190915260038082527f302e33000000000000000000000000000000000000000000000000000000000060209092019182526100839160819161082b565b506001606060020a641c35fedd1502036021556001605e60020a646c3390ecc902036022556001606160020a640cf801476102036023556001605f60020a6431bdb23e1d02036024556001605b60020a6502fb1d8fe08302036025556001605a60020a6505b771955b3702036026556001605960020a650af67a93bb5102036027556001605860020a6515060c256cb302036028556001605860020a651428a2f98d7302036029556001605660020a654d51566397090203602a556001605560020a65944620b0e70f0203602b557011c592761c666fffffffffffffffffffff602c5570110a688680a757ffffffffffffffffffff602d55701056f1b5bedf77ffffffffffffffffffff602e55700faadceceeff8bffffffffffffffffffff602f55700f05dc6b27edadffffffffffffffffffff603055700e67a5a25da4107fffffffffffffffffff603155700dcff115b14eedffffffffffffffffffff603255700d3e7a392431239fffffffffffffffffff603355700cb2ff529eb71e4fffffffffffffffffff603455700c2d415c3db974afffffffffffffffffff603555700bad03e7d883f69bffffffffffffffffff603655700b320d03b2c343d5ffffffffffffffffff603755700abc25204e02828dffffffffffffffffff603855700a4b16f74ee4bb207fffffffffffffffff6039557009deaf736ac1f569ffffffffffffffffff603a55700976bd9952c7aa957fffffffffffffffff603b557009131271922eaa606fffffffffffffffff603c557008b380f3558668c46fffffffffffffffff603d55700857ddf0117efa215bffffffffffffffff603e556001608360020a03603f557007abbf6f6abb9d087fffffffffffffffff60405570075af62cbac95f7dfa7fffffffffffffff60415570070d7fb7452e187ac13fffffffffffffff6042557006c3390ecc8af379295fffffffffffffff60435570067c00a3b07ffc01fd6fffffffffffffff604455700637b647c39cbb9d3d27ffffffffffffff6045557005f63b1fc104dbd39587ffffffffffffff6046557005b771955b36e12f7235ffffffffffffff60475570057b3d49dda84556d6f6ffffffffffffff60485570054183095b2c8ececf30ffffffffffffff60495570050a28be635ca2b888f77fffffffffffff604a557004d5156639708c9db33c3fffffffffffff604b557004a23105873875bd52dfdfffffffffffff604c55700471649d87199aa990756fffffffffffff604d557004429a21a029d4c1457cfbffffffffffff604e55700415bc6d6fb7dd71af2cb3ffffffffffff604f557003eab73b3bbfe282243ce1ffffffffffff6050557003c1771ac9fb6b4c18e229ffffffffffff605155700399e96897690418f785257fffffffffff605255700373fc456c53bb779bf0ea9fffffffffff60535570034f9e8e490c48e67e6ab8bfffffffffff60545570032cbfd4a7adc790560b3337ffffffffff60555570030b50570f6e5d2acca94613ffffffffff6056557002eb40f9f620fda6b56c2861ffffffffff6057557002cc8340ecb0d0f520a6af58ffffffffff6058557002af09481380a0a35cf1ba02ffffffffff605955700292c5bdd3b92ec810287b1b3fffffffff605a55700277abdcdab07d5a77ac6d6b9fffffffff605b5570025daf6654b1eaa55fd64df5efffffffff605c55700244c49c648baa98192dce88b7ffffffff605d5570022ce03cd5619a311b2471268bffffffff605e55700215f77c045fbe885654a44a0fffffffff605f556001608160020a036060557001eaefdbdaaee7421fc4d3ede5ffffffff6061557001d6bd8b2eb257df7e8ca57b09bfffffff6062557001c35fedd14b861eb0443f7f133fffffff6063557001b0ce43b322bcde4a56e8ada5afffffff60645570019f0028ec1fff007f5a195a39dfffffff60655570018ded91f0e72ee74f49b15ba527ffffff60665570017d8ec7f04136f4e5615fd41a63ffffff60675570016ddc6556cdb84bdc8d12d22e6fffffff60685570015ecf52776a1155b5bd8395814f7fffff60695570015060c256cb23b3b3cc3754cf40ffffff606a557001428a2f98d728ae223ddab715be3fffff606b5570013545598e5c23276ccf0ede68034fffff606c557001288c4161ce1d6f54b7f61081194fffff606d5570011c592761c666aa641d5a01a40f17ffff606e55700110a688680a7530515f3e6e6cfdcdffff606f557001056f1b5bedf75c6bcb2ce8aed428ffff6070556ffaadceceeff8a0890f3875f008277fff6071556ff05dc6b27edad306388a600f6ba0bfff6072556fe67a5a25da41063de1495d5b18cdbfff6073556fdcff115b14eedde6fc3aa5353f2e4fff6074556fd3e7a3924312399f9aae2e0f868f8fff6075556fcb2ff529eb71e41582cccd5a1ee26fff6076556fc2d415c3db974ab32a51840c0b67edff6077556fbad03e7d883f69ad5b0a186184e06bff6078556fb320d03b2c343d4829abd6075f0cc5ff6079556fabc25204e02828d73c6e80bcdb1a95bf607a556fa4b16f74ee4bb2040a1ec6c15fbbf2df607b556f9deaf736ac1f569deb1b5ae3f36c130f607c556f976bd9952c7aa957f5937d790ef65037607d556f9131271922eaa6064b73a22d0bd4f2bf607e556f8b380f3558668c46c91c49a2f8e967b9607f556f857ddf0117efa215952912839f6473e66080556108c6565b828054600181600116156101000203166002900490600052602060002090601f016020900481019282601f1061086c57805160ff1916838001178555610899565b82800160010185558215610899579182015b8281111561089957825182559160200191906001019061087e565b506108a59291506108a9565b5090565b6108c391905b808211156108a557600081556001016108af565b90565b610b0c806108d56000396000f3006080604052600436106100565763ffffffff7c010000000000000000000000000000000000000000000000000000000060003504166329a00e7c811461005b57806349f9b0f71461009457806354fd4d50146100bb575b600080fd5b34801561006757600080fd5b5061008260043560243563ffffffff60443516606435610145565b60408051918252519081900360200190f35b3480156100a057600080fd5b5061008260043560243563ffffffff6044351660643561022a565b3480156100c757600080fd5b506100d0610326565b6040805160208082528351818301528351919283929083019185019080838360005b8381101561010a5781810151838201526020016100f2565b50505050905090810190601f1680156101375780820380516001836020036101000a031916815260200191505b509250505060405180910390f35b6000806000806000808911801561015c5750600088115b801561016e575060008763ffffffff16115b80156101835750620f424063ffffffff881611155b151561018e57600080fd5b85151561019e576000945061021e565b63ffffffff8716620f424014156101d6576101cf886101c38b8963ffffffff6103b416565b9063ffffffff6103e316565b945061021e565b6101e6868963ffffffff6103f816565b91506101f7828989620f4240610405565b909450925060ff83166102108a8663ffffffff6103b416565b9060020a9004905088810394505b50505050949350505050565b60008060008060008060008a1180156102435750600089115b8015610255575060008863ffffffff16115b801561026a5750620f424063ffffffff891611155b80156102765750898711155b151561028157600080fd5b8615156102915760009550610319565b898714156102a157889550610319565b63ffffffff8816620f424014156102cd576102c68a6101c38b8a63ffffffff6103b416565b9550610319565b868a0392506102e18a84620f42408b610405565b90955093506102f6898663ffffffff6103b416565b91505060ff831660020a8802610316856101c3848463ffffffff61045e16565b95505b5050505050949350505050565b6081805460408051602060026001851615610100026000190190941693909304601f810184900484028201840190925281815292918301828280156103ac5780601f10610381576101008083540402835291602001916103ac565b820191906000526020600020905b81548152906001019060200180831161038f57829003601f168201915b505050505081565b60008215156103c5575060006103dd565b508181028183828115156103d557fe5b04146103dd57fe5b92915050565b600081838115156103f057fe5b049392505050565b818101828110156103dd57fe5b6000806000808463ffffffff168663ffffffff166104238a8a610470565b0281151561042d57fe5b049150610439826105b3565b905061045160ff607f8390031660020a83048261064a565b9890975095505050505050565b60008282111561046a57fe5b50900390565b6000808080807001ffffffffffffffffffffffffffffffff87111561049157fe5b60009350856f8000000000000000000000000000000088028115156104b257fe5b049250700100000000000000000000000000000000831061050b576104e86f800000000000000000000000000000008404610a6d565b60ff81166f800000000000000000000000000000008102955060020a9093049291505b6f800000000000000000000000000000008311156105825750607f5b60008160ff161115610582576f8000000000000000000000000000000083800204925070010000000000000000000000000000000083106105795760ff600019820116600290810a9490940193909204915b60001901610527565b6f040000000000000000000000000000006f02c5c85fdf473de6af278ece600fcbda85020494505050505092915050565b60006020607f825b8160ff168360010160ff16101561060057600260ff8484011604905084600160ff8316608081106105e857fe5b0154106105f7578092506105fb565b8091505b6105bb565b84600160ff84166080811061061157fe5b01541061062057819350610642565b84600160ff85166080811061063157fe5b01541061064057829350610642565bfe5b505050919050565b6000806000849150600090508360ff168583029060020a90049150816f03442c4e6074a82f1797f72ac000000002810190508360ff168583029060020a90049150816f0116b96f757c380fb287fd0e4000000002810190508360ff168583029060020a90049150816e45ae5bdd5f0e03eca1ff439000000002810190508360ff168583029060020a90049150816e0defabf91302cd95b9ffda5000000002810190508360ff168583029060020a90049150816e02529ca9832b22439efff9b800000002810190508360ff168583029060020a90049150816d54f1cf12bd04e516b6da8800000002810190508360ff168583029060020a90049150816d0a9e39e257a09ca2d6db5100000002810190508360ff168583029060020a90049150816d012e066e7b839fa050c30900000002810190508360ff168583029060020a90049150816c1e33d7d926c329a1ad1a80000002810190508360ff168583029060020a90049150816c02bee513bdb4a6b19b5f80000002810190508360ff168583029060020a90049150816b3a9316fa79b88eccf2a0000002810190508360ff168583029060020a90049150816b048177ebe1fa81237520000002810190508360ff168583029060020a90049150816a5263fe90242dcbacf0000002810190508360ff168583029060020a90049150816a057e22099c030d9410000002810190508360ff168583029060020a90049150816957e22099c030d941000002810190508360ff168583029060020a900491508169052b6b5456997631000002810190508360ff168583029060020a9004915081684985f67696bf74800002810190508360ff168583029060020a90049150816803dea12ea99e49800002810190508360ff168583029060020a90049150816731880f2214b6e00002810190508360ff168583029060020a900491508167025bcff56eb3600002810190508360ff168583029060020a9004915081661b722e10ab100002810190508360ff168583029060020a90049150816601317c7007700002810190508360ff168583029060020a9004915081650cba84aafa0002810190508360ff168583029060020a90049150816482573a0a0002810190508360ff168583029060020a90049150816405035ad90002810190508360ff168583029060020a9004915081632f881b0002810190508360ff168583029060020a90049150816301b2934002810190508360ff168583029060020a9004915081620efc4002810190508360ff168583029060020a9004915081617fe002810190508360ff168583029060020a900491508161042002810190508360ff168583029060020a9004915081602102810190508360ff168583029060020a9004915081600102810190508360ff1660019060020a02856f0688589cc0e9505e2f2fee558000000083811515610a6157fe5b04010195945050505050565b6000808281610100821015610a9d575b6001821115610a985760019290920191600290910490610a7d565b610ad7565b5060805b60008160ff161115610ad75760ff811660020a8210610aca579182179160ff811660020a909104905b600260ff90911604610aa1565b509093925050505600a165627a7a72305820505a1d6cb7ab8cc82a76da55d4d6b8edf179f13900a5b32b140ef62303b8b67d0029",
  "source": "pragma solidity ^0.4.18;\nimport \"./Power.sol\";\nimport \"zeppelin-solidity/contracts/math/SafeMath.sol\";\n\n/**\n * Bancor formula by Bancor\n * https://github.com/bancorprotocol/contracts\n * Modified from the original by Slava Balasanov\n * Split Power.sol out from BancorFormula.sol and replace SafeMath formulas with zeppelin's SafeMath\n * Licensed to the Apache Software Foundation (ASF) under one or more contributor license agreements;\n * and to You under the Apache License, Version 2.0. \"\n */\ncontract BancorFormula is Power {\n  using SafeMath for uint256;\n\n  string public version = \"0.3\";\n  uint32 private constant MAX_WEIGHT = 1000000;\n\n  /**\n    @dev given a token supply, connector balance, weight and a deposit amount (in the connector token),\n    calculates the return for a given conversion (in the main token)\n\n    Formula:\n    Return = _supply * ((1 + _depositAmount / _connectorBalance) ^ (_connectorWeight / 1000000) - 1)\n\n    @param _supply              token total supply\n    @param _connectorBalance    total connector balance\n    @param _connectorWeight     connector weight, represented in ppm, 1-1000000\n    @param _depositAmount       deposit amount, in connector token\n\n    @return purchase return amount\n  */\n  function calculatePurchaseReturn(uint256 _supply, uint256 _connectorBalance, uint32 _connectorWeight, uint256 _depositAmount) public constant returns (uint256) {\n    // validate input\n    require(_supply > 0 && _connectorBalance > 0 && _connectorWeight > 0 && _connectorWeight <= MAX_WEIGHT);\n\n    // special case for 0 deposit amount\n    if (_depositAmount == 0)\n      return 0;\n\n    // special case if the weight = 100%\n    if (_connectorWeight == MAX_WEIGHT)\n      return _supply.mul(_depositAmount).div(_connectorBalance);\n\n    uint256 result;\n    uint8 precision;\n    uint256 baseN = _depositAmount.add(_connectorBalance);\n    (result, precision) = power(baseN, _connectorBalance, _connectorWeight, MAX_WEIGHT);\n    uint256 temp = _supply.mul(result) >> precision;\n    return temp - _supply;\n  }\n\n  /**\n    @dev given a token supply, connector balance, weight and a sell amount (in the main token),\n    calculates the return for a given conversion (in the connector token)\n\n    Formula:\n    Return = _connectorBalance * (1 - (1 - _sellAmount / _supply) ^ (1 / (_connectorWeight / 1000000)))\n\n    @param _supply              token total supply\n    @param _connectorBalance    total connector\n    @param _connectorWeight     constant connector Weight, represented in ppm, 1-1000000\n    @param _sellAmount          sell amount, in the token itself\n\n    @return sale return amount\n  */\n  function calculateSaleReturn(uint256 _supply, uint256 _connectorBalance, uint32 _connectorWeight, uint256 _sellAmount) public constant returns (uint256) {\n    // validate input\n    require(_supply > 0 && _connectorBalance > 0 && _connectorWeight > 0 && _connectorWeight <= MAX_WEIGHT && _sellAmount <= _supply);\n\n    // special case for 0 sell amount\n    if (_sellAmount == 0)\n      return 0;\n\n    // special case for selling the entire supply\n    if (_sellAmount == _supply)\n      return _connectorBalance;\n\n    // special case if the weight = 100%\n    if (_connectorWeight == MAX_WEIGHT)\n      return _connectorBalance.mul(_sellAmount).div(_supply);\n\n    uint256 result;\n    uint8 precision;\n    uint256 baseD = _supply - _sellAmount;\n    (result, precision) = power(_supply, baseD, MAX_WEIGHT, _connectorWeight);\n    uint256 temp1 = _connectorBalance.mul(result);\n    uint256 temp2 = _connectorBalance << precision;\n    return temp1.sub(temp2).div(result);\n  }\n}\n",
  "sourcePath": "relevant-contracts/contracts/BancorFormula.sol",
  "compiler": {
    "name": "solc",
    "version": "0.4.24+commit.e67f0147.Emscripten.clang"
  },
  "schemaVersion": "3.0.0-beta.0",
  "updatedAt": "2018-09-11T01:19:19.861Z"
}