{
  "contractName": "BondingCurve",
  "abi": [
    {
      "constant": false,
      "inputs": [
        {
          "name": "_spender",
          "type": "address"
        },
        {
          "name": "_value",
          "type": "uint256"
        }
      ],
      "name": "approve",
      "outputs": [
        {
          "name": "",
          "type": "bool"
        }
      ],
      "payable": false,
      "stateMutability": "nonpayable",
      "type": "function"
    },
    {
      "constant": true,
      "inputs": [],
      "name": "reserveRatio",
      "outputs": [
        {
          "name": "",
          "type": "uint32"
        }
      ],
      "payable": false,
      "stateMutability": "view",
      "type": "function"
    },
    {
      "constant": true,
      "inputs": [],
      "name": "totalSupply",
      "outputs": [
        {
          "name": "",
          "type": "uint256"
        }
      ],
      "payable": false,
      "stateMutability": "view",
      "type": "function"
    },
    {
      "constant": false,
      "inputs": [
        {
          "name": "_from",
          "type": "address"
        },
        {
          "name": "_to",
          "type": "address"
        },
        {
          "name": "_value",
          "type": "uint256"
        }
      ],
      "name": "transferFrom",
      "outputs": [
        {
          "name": "",
          "type": "bool"
        }
      ],
      "payable": false,
      "stateMutability": "nonpayable",
      "type": "function"
    },
    {
      "constant": true,
      "inputs": [
        {
          "name": "_supply",
          "type": "uint256"
        },
        {
          "name": "_connectorBalance",
          "type": "uint256"
        },
        {
          "name": "_connectorWeight",
          "type": "uint32"
        },
        {
          "name": "_depositAmount",
          "type": "uint256"
        }
      ],
      "name": "calculatePurchaseReturn",
      "outputs": [
        {
          "name": "",
          "type": "uint256"
        }
      ],
      "payable": false,
      "stateMutability": "view",
      "type": "function"
    },
    {
      "constant": true,
      "inputs": [
        {
          "name": "_supply",
          "type": "uint256"
        },
        {
          "name": "_connectorBalance",
          "type": "uint256"
        },
        {
          "name": "_connectorWeight",
          "type": "uint32"
        },
        {
          "name": "_sellAmount",
          "type": "uint256"
        }
      ],
      "name": "calculateSaleReturn",
      "outputs": [
        {
          "name": "",
          "type": "uint256"
        }
      ],
      "payable": false,
      "stateMutability": "view",
      "type": "function"
    },
    {
      "constant": true,
      "inputs": [],
      "name": "version",
      "outputs": [
        {
          "name": "",
          "type": "string"
        }
      ],
      "payable": false,
      "stateMutability": "view",
      "type": "function"
    },
    {
      "constant": false,
      "inputs": [
        {
          "name": "_spender",
          "type": "address"
        },
        {
          "name": "_subtractedValue",
          "type": "uint256"
        }
      ],
      "name": "decreaseApproval",
      "outputs": [
        {
          "name": "",
          "type": "bool"
        }
      ],
      "payable": false,
      "stateMutability": "nonpayable",
      "type": "function"
    },
    {
      "constant": true,
      "inputs": [
        {
          "name": "_owner",
          "type": "address"
        }
      ],
      "name": "balanceOf",
      "outputs": [
        {
          "name": "",
          "type": "uint256"
        }
      ],
      "payable": false,
      "stateMutability": "view",
      "type": "function"
    },
    {
      "constant": false,
      "inputs": [],
      "name": "renounceOwnership",
      "outputs": [],
      "payable": false,
      "stateMutability": "nonpayable",
      "type": "function"
    },
    {
      "constant": true,
      "inputs": [],
      "name": "owner",
      "outputs": [
        {
          "name": "",
          "type": "address"
        }
      ],
      "payable": false,
      "stateMutability": "view",
      "type": "function"
    },
    {
      "constant": true,
      "inputs": [],
      "name": "poolBalance",
      "outputs": [
        {
          "name": "",
          "type": "uint256"
        }
      ],
      "payable": false,
      "stateMutability": "view",
      "type": "function"
    },
    {
      "constant": false,
      "inputs": [
        {
          "name": "_to",
          "type": "address"
        },
        {
          "name": "_value",
          "type": "uint256"
        }
      ],
      "name": "transfer",
      "outputs": [
        {
          "name": "",
          "type": "bool"
        }
      ],
      "payable": false,
      "stateMutability": "nonpayable",
      "type": "function"
    },
    {
      "constant": false,
      "inputs": [
        {
          "name": "_spender",
          "type": "address"
        },
        {
          "name": "_addedValue",
          "type": "uint256"
        }
      ],
      "name": "increaseApproval",
      "outputs": [
        {
          "name": "",
          "type": "bool"
        }
      ],
      "payable": false,
      "stateMutability": "nonpayable",
      "type": "function"
    },
    {
      "constant": true,
      "inputs": [
        {
          "name": "_owner",
          "type": "address"
        },
        {
          "name": "_spender",
          "type": "address"
        }
      ],
      "name": "allowance",
      "outputs": [
        {
          "name": "",
          "type": "uint256"
        }
      ],
      "payable": false,
      "stateMutability": "view",
      "type": "function"
    },
    {
      "constant": false,
      "inputs": [
        {
          "name": "_newOwner",
          "type": "address"
        }
      ],
      "name": "transferOwnership",
      "outputs": [],
      "payable": false,
      "stateMutability": "nonpayable",
      "type": "function"
    },
    {
      "constant": true,
      "inputs": [],
      "name": "gasPrice",
      "outputs": [
        {
          "name": "",
          "type": "uint256"
        }
      ],
      "payable": false,
      "stateMutability": "view",
      "type": "function"
    },
    {
      "payable": true,
      "stateMutability": "payable",
      "type": "fallback"
    },
    {
      "anonymous": false,
      "inputs": [
        {
          "indexed": false,
          "name": "amountMinted",
          "type": "uint256"
        },
        {
          "indexed": false,
          "name": "totalCost",
          "type": "uint256"
        }
      ],
      "name": "LogMint",
      "type": "event"
    },
    {
      "anonymous": false,
      "inputs": [
        {
          "indexed": false,
          "name": "amountWithdrawn",
          "type": "uint256"
        },
        {
          "indexed": false,
          "name": "reward",
          "type": "uint256"
        }
      ],
      "name": "LogWithdraw",
      "type": "event"
    },
    {
      "anonymous": false,
      "inputs": [
        {
          "indexed": false,
          "name": "logString",
          "type": "string"
        },
        {
          "indexed": false,
          "name": "value",
          "type": "uint256"
        }
      ],
      "name": "LogBondingCurve",
      "type": "event"
    },
    {
      "anonymous": false,
      "inputs": [
        {
          "indexed": true,
          "name": "previousOwner",
          "type": "address"
        }
      ],
      "name": "OwnershipRenounced",
      "type": "event"
    },
    {
      "anonymous": false,
      "inputs": [
        {
          "indexed": true,
          "name": "previousOwner",
          "type": "address"
        },
        {
          "indexed": true,
          "name": "newOwner",
          "type": "address"
        }
      ],
      "name": "OwnershipTransferred",
      "type": "event"
    },
    {
      "anonymous": false,
      "inputs": [
        {
          "indexed": true,
          "name": "owner",
          "type": "address"
        },
        {
          "indexed": true,
          "name": "spender",
          "type": "address"
        },
        {
          "indexed": false,
          "name": "value",
          "type": "uint256"
        }
      ],
      "name": "Approval",
      "type": "event"
    },
    {
      "anonymous": false,
      "inputs": [
        {
          "indexed": true,
          "name": "from",
          "type": "address"
        },
        {
          "indexed": true,
          "name": "to",
          "type": "address"
        },
        {
          "indexed": false,
          "name": "value",
          "type": "uint256"
        }
      ],
      "name": "Transfer",
      "type": "event"
    },
    {
      "constant": false,
      "inputs": [],
      "name": "buy",
      "outputs": [
        {
          "name": "",
          "type": "bool"
        }
      ],
      "payable": true,
      "stateMutability": "payable",
      "type": "function"
    },
    {
      "constant": false,
      "inputs": [
        {
          "name": "sellAmount",
          "type": "uint256"
        }
      ],
      "name": "sell",
      "outputs": [
        {
          "name": "",
          "type": "bool"
        }
      ],
      "payable": false,
      "stateMutability": "nonpayable",
      "type": "function"
    },
    {
      "constant": false,
      "inputs": [
        {
          "name": "_gasPrice",
          "type": "uint256"
        }
      ],
      "name": "setGasPrice",
      "outputs": [],
      "payable": false,
      "stateMutability": "nonpayable",
      "type": "function"
    }
  ],
  "bytecode": "0x60c0604052600360808190527f302e33000000000000000000000000000000000000000000000000000000000060a09081526200003e91908162000845565b506040805180820190915260038082527f302e3300000000000000000000000000000000000000000000000000000000006020909201918252620000859160849162000845565b5060006088556001606060020a641c35fedd1502036024556001605e60020a646c3390ecc902036025556001606160020a640cf801476102036026556001605f60020a6431bdb23e1d02036027556001605b60020a6502fb1d8fe08302036028556001605a60020a6505b771955b3702036029556001605960020a650af67a93bb510203602a556001605860020a6515060c256cb30203602b556001605860020a651428a2f98d730203602c556001605660020a654d51566397090203602d556001605560020a65944620b0e70f0203602e557011c592761c666fffffffffffffffffffff602f5570110a688680a757ffffffffffffffffffff603055701056f1b5bedf77ffffffffffffffffffff603155700faadceceeff8bffffffffffffffffffff603255700f05dc6b27edadffffffffffffffffffff603355700e67a5a25da4107fffffffffffffffffff603455700dcff115b14eedffffffffffffffffffff603555700d3e7a392431239fffffffffffffffffff603655700cb2ff529eb71e4fffffffffffffffffff603755700c2d415c3db974afffffffffffffffffff603855700bad03e7d883f69bffffffffffffffffff603955700b320d03b2c343d5ffffffffffffffffff603a55700abc25204e02828dffffffffffffffffff603b55700a4b16f74ee4bb207fffffffffffffffff603c557009deaf736ac1f569ffffffffffffffffff603d55700976bd9952c7aa957fffffffffffffffff603e557009131271922eaa606fffffffffffffffff603f557008b380f3558668c46fffffffffffffffff604055700857ddf0117efa215bffffffffffffffff6041556001608360020a036042557007abbf6f6abb9d087fffffffffffffffff60435570075af62cbac95f7dfa7fffffffffffffff60445570070d7fb7452e187ac13fffffffffffffff6045557006c3390ecc8af379295fffffffffffffff60465570067c00a3b07ffc01fd6fffffffffffffff604755700637b647c39cbb9d3d27ffffffffffffff6048557005f63b1fc104dbd39587ffffffffffffff6049557005b771955b36e12f7235ffffffffffffff604a5570057b3d49dda84556d6f6ffffffffffffff604b5570054183095b2c8ececf30ffffffffffffff604c5570050a28be635ca2b888f77fffffffffffff604d557004d5156639708c9db33c3fffffffffffff604e557004a23105873875bd52dfdfffffffffffff604f55700471649d87199aa990756fffffffffffff6050557004429a21a029d4c1457cfbffffffffffff605155700415bc6d6fb7dd71af2cb3ffffffffffff6052557003eab73b3bbfe282243ce1ffffffffffff6053557003c1771ac9fb6b4c18e229ffffffffffff605455700399e96897690418f785257fffffffffff605555700373fc456c53bb779bf0ea9fffffffffff60565570034f9e8e490c48e67e6ab8bfffffffffff60575570032cbfd4a7adc790560b3337ffffffffff60585570030b50570f6e5d2acca94613ffffffffff6059557002eb40f9f620fda6b56c2861ffffffffff605a557002cc8340ecb0d0f520a6af58ffffffffff605b557002af09481380a0a35cf1ba02ffffffffff605c55700292c5bdd3b92ec810287b1b3fffffffff605d55700277abdcdab07d5a77ac6d6b9fffffffff605e5570025daf6654b1eaa55fd64df5efffffffff605f55700244c49c648baa98192dce88b7ffffffff60605570022ce03cd5619a311b2471268bffffffff606155700215f77c045fbe885654a44a0fffffffff6062556001608160020a036063557001eaefdbdaaee7421fc4d3ede5ffffffff6064557001d6bd8b2eb257df7e8ca57b09bfffffff6065557001c35fedd14b861eb0443f7f133fffffff6066557001b0ce43b322bcde4a56e8ada5afffffff60675570019f0028ec1fff007f5a195a39dfffffff60685570018ded91f0e72ee74f49b15ba527ffffff60695570017d8ec7f04136f4e5615fd41a63ffffff606a5570016ddc6556cdb84bdc8d12d22e6fffffff606b5570015ecf52776a1155b5bd8395814f7fffff606c5570015060c256cb23b3b3cc3754cf40ffffff606d557001428a2f98d728ae223ddab715be3fffff606e5570013545598e5c23276ccf0ede68034fffff606f557001288c4161ce1d6f54b7f61081194fffff60705570011c592761c666aa641d5a01a40f17ffff607155700110a688680a7530515f3e6e6cfdcdffff6072557001056f1b5bedf75c6bcb2ce8aed428ffff6073556ffaadceceeff8a0890f3875f008277fff6074556ff05dc6b27edad306388a600f6ba0bfff6075556fe67a5a25da41063de1495d5b18cdbfff6076556fdcff115b14eedde6fc3aa5353f2e4fff6077556fd3e7a3924312399f9aae2e0f868f8fff6078556fcb2ff529eb71e41582cccd5a1ee26fff6079556fc2d415c3db974ab32a51840c0b67edff607a556fbad03e7d883f69ad5b0a186184e06bff607b556fb320d03b2c343d4829abd6075f0cc5ff607c556fabc25204e02828d73c6e80bcdb1a95bf607d556fa4b16f74ee4bb2040a1ec6c15fbbf2df607e556f9deaf736ac1f569deb1b5ae3f36c130f607f556f976bd9952c7aa957f5937d790ef650376080556f9131271922eaa6064b73a22d0bd4f2bf6081556f8b380f3558668c46c91c49a2f8e967b96082556f857ddf0117efa215952912839f6473e660835560858054600160a060020a03191633179055620008ea565b828054600181600116156101000203166002900490600052602060002090601f016020900481019282601f106200088857805160ff1916838001178555620008b8565b82800160010185558215620008b8579182015b82811115620008b85782518255916020019190600101906200089b565b50620008c6929150620008ca565b5090565b620008e791905b80821115620008c65760008155600101620008d1565b90565b6115da80620008fa6000396000f3006080604052600436106101115763ffffffff7c0100000000000000000000000000000000000000000000000000000000600035041663095ea7b3811461011c5780630c7d5cd81461015457806318160ddd1461018257806323b872dd146101a957806329a00e7c146101d357806349f9b0f7146101fa57806354fd4d501461022157806366188463146102ab57806370a08231146102cf578063715018a6146102f05780638da5cb5b1461030757806396365d4414610338578063a6f2ae3a1461034d578063a9059cbb14610355578063bf1fe42014610379578063d73dd62314610391578063dd62ed3e146103b5578063e4849b32146103dc578063f2fde38b146103f4578063fe173b9714610415575b61011961042a565b50005b34801561012857600080fd5b50610140600160a060020a0360043516602435610504565b604080519115158252519081900360200190f35b34801561016057600080fd5b5061016961056b565b6040805163ffffffff9092168252519081900360200190f35b34801561018e57600080fd5b50610197610577565b60408051918252519081900360200190f35b3480156101b557600080fd5b50610140600160a060020a036004358116906024351660443561057d565b3480156101df57600080fd5b5061019760043560243563ffffffff604435166064356106f2565b34801561020657600080fd5b5061019760043560243563ffffffff604435166064356107d7565b34801561022d57600080fd5b506102366108d3565b6040805160208082528351818301528351919283929083019185019080838360005b83811015610270578181015183820152602001610258565b50505050905090810190601f16801561029d5780820380516001836020036101000a031916815260200191505b509250505060405180910390f35b3480156102b757600080fd5b50610140600160a060020a0360043516602435610961565b3480156102db57600080fd5b50610197600160a060020a0360043516610a50565b3480156102fc57600080fd5b50610305610a6b565b005b34801561031357600080fd5b5061031c610ad9565b60408051600160a060020a039092168252519081900360200190f35b34801561034457600080fd5b50610197610ae8565b61014061042a565b34801561036157600080fd5b50610140600160a060020a0360043516602435610aee565b34801561038557600080fd5b50610305600435610bcd565b34801561039d57600080fd5b50610140600160a060020a0360043516602435610bf6565b3480156103c157600080fd5b50610197600160a060020a0360043581169060243516610c8f565b3480156103e857600080fd5b50610140600435610cba565b34801561040057600080fd5b50610305600160a060020a0360043516610de1565b34801561042157600080fd5b50610197610e04565b6000806088543a1115151561043b57fe5b6000341161044857600080fd5b60015460865460875461046392919063ffffffff16346106f2565b600154909150610479908263ffffffff610e0a16565b6001553360009081526020819052604090205461049c908263ffffffff610e0a16565b336000908152602081905260409020556086546104bf903463ffffffff610e0a16565b6086556040805182815234602082015281517fe7360c0fa1984a85874443100f5b25dd4f84192659660eb199f6c96e11defbcb929181900390910190a1600191505090565b336000818152600260209081526040808320600160a060020a038716808552908352818420869055815186815291519394909390927f8c5be1e5ebec7d5bd14f71427d1e84f3dd0314c0f7b2291e5b200ac8c7c3b925928290030190a35060015b92915050565b60875463ffffffff1681565b60015490565b600160a060020a0383166000908152602081905260408120548211156105a257600080fd5b600160a060020a03841660009081526002602090815260408083203384529091529020548211156105d257600080fd5b600160a060020a03831615156105e757600080fd5b600160a060020a038416600090815260208190526040902054610610908363ffffffff610e1716565b600160a060020a038086166000908152602081905260408082209390935590851681522054610645908363ffffffff610e0a16565b600160a060020a03808516600090815260208181526040808320949094559187168152600282528281203382529091522054610687908363ffffffff610e1716565b600160a060020a03808616600081815260026020908152604080832033845282529182902094909455805186815290519287169391927fddf252ad1be2c89b69c2b068fc378daa952ba7f163c4a11628f55a4df523b3ef929181900390910190a35060019392505050565b600080600080600080891180156107095750600088115b801561071b575060008763ffffffff16115b80156107305750620f424063ffffffff881611155b151561073b57600080fd5b85151561074b57600094506107cb565b63ffffffff8716620f424014156107835761077c886107708b8963ffffffff610e2916565b9063ffffffff610e5216565b94506107cb565b610793868963ffffffff610e0a16565b91506107a4828989620f4240610e67565b909450925060ff83166107bd8a8663ffffffff610e2916565b9060020a9004905088810394505b50505050949350505050565b60008060008060008060008a1180156107f05750600089115b8015610802575060008863ffffffff16115b80156108175750620f424063ffffffff891611155b80156108235750898711155b151561082e57600080fd5b86151561083e57600095506108c6565b8987141561084e578895506108c6565b63ffffffff8816620f4240141561087a576108738a6107708b8a63ffffffff610e2916565b95506108c6565b868a03925061088e8a84620f42408b610e67565b90955093506108a3898663ffffffff610e2916565b91505060ff831660020a88026108c385610770848463ffffffff610e1716565b95505b5050505050949350505050565b6084805460408051602060026001851615610100026000190190941693909304601f810184900484028201840190925281815292918301828280156109595780601f1061092e57610100808354040283529160200191610959565b820191906000526020600020905b81548152906001019060200180831161093c57829003601f168201915b505050505081565b336000908152600260209081526040808320600160a060020a03861684529091528120548083106109b557336000908152600260209081526040808320600160a060020a03881684529091528120556109ea565b6109c5818463ffffffff610e1716565b336000908152600260209081526040808320600160a060020a03891684529091529020555b336000818152600260209081526040808320600160a060020a0389168085529083529281902054815190815290519293927f8c5be1e5ebec7d5bd14f71427d1e84f3dd0314c0f7b2291e5b200ac8c7c3b925929181900390910190a35060019392505050565b600160a060020a031660009081526020819052604090205490565b608554600160a060020a03163314610a8257600080fd5b608554604051600160a060020a03909116907ff8df31144d9c2f0f6b59d69b8b98abd5459d07f2742c4df920b25aae33c6482090600090a26085805473ffffffffffffffffffffffffffffffffffffffff19169055565b608554600160a060020a031681565b60865481565b33600090815260208190526040812054821115610b0a57600080fd5b600160a060020a0383161515610b1f57600080fd5b33600090815260208190526040902054610b3f908363ffffffff610e1716565b3360009081526020819052604080822092909255600160a060020a03851681522054610b71908363ffffffff610e0a16565b600160a060020a038416600081815260208181526040918290209390935580518581529051919233927fddf252ad1be2c89b69c2b068fc378daa952ba7f163c4a11628f55a4df523b3ef9281900390910190a350600192915050565b608554600160a060020a03163314610be457600080fd5b60008111610bf157600080fd5b608855565b336000908152600260209081526040808320600160a060020a0386168452909152812054610c2a908363ffffffff610e0a16565b336000818152600260209081526040808320600160a060020a0389168085529083529281902085905580519485525191937f8c5be1e5ebec7d5bd14f71427d1e84f3dd0314c0f7b2291e5b200ac8c7c3b925929081900390910190a350600192915050565b600160a060020a03918216600090815260026020908152604080832093909416825291909152205490565b6000806088543a11151515610ccb57fe5b600083118015610cea5750336000908152602081905260409020548311155b1515610cf557600080fd5b600154608654608754610d1092919063ffffffff16866107d7565b604051909150339082156108fc029083906000818181858888f19350505050158015610d40573d6000803e3d6000fd5b50608654610d54908263ffffffff610e1716565b60865533600090815260208190526040902054610d77908463ffffffff610e1716565b33600090815260208190526040902055600154610d9a908463ffffffff610e1716565b600155604080518481526020810183905281517f210405eb88ac7589aa9de0a6e36b9c9d3cd6e4061b74363d250a77afe3c6efb7929181900390910190a150600192915050565b608554600160a060020a03163314610df857600080fd5b610e0181610ec0565b50565b60885481565b8181018281101561056557fe5b600082821115610e2357fe5b50900390565b6000821515610e3a57506000610565565b50818102818382811515610e4a57fe5b041461056557fe5b60008183811515610e5f57fe5b049392505050565b6000806000808463ffffffff168663ffffffff16610e858a8a610f3e565b02811515610e8f57fe5b049150610e9b82611081565b9050610eb360ff607f8390031660020a830482611118565b9890975095505050505050565b600160a060020a0381161515610ed557600080fd5b608554604051600160a060020a038084169216907f8be0079c531659141344cd1fd0a4f28419497f9722a3daafe3b4186f6b6457e090600090a36085805473ffffffffffffffffffffffffffffffffffffffff1916600160a060020a0392909216919091179055565b6000808080807001ffffffffffffffffffffffffffffffff871115610f5f57fe5b60009350856f800000000000000000000000000000008802811515610f8057fe5b0492507001000000000000000000000000000000008310610fd957610fb66f80000000000000000000000000000000840461153b565b60ff81166f800000000000000000000000000000008102955060020a9093049291505b6f800000000000000000000000000000008311156110505750607f5b60008160ff161115611050576f8000000000000000000000000000000083800204925070010000000000000000000000000000000083106110475760ff600019820116600290810a9490940193909204915b60001901610ff5565b6f040000000000000000000000000000006f02c5c85fdf473de6af278ece600fcbda85020494505050505092915050565b60006020607f825b8160ff168360010160ff1610156110ce57600260ff8484011604905084600460ff8316608081106110b657fe5b0154106110c5578092506110c9565b8091505b611089565b84600460ff8416608081106110df57fe5b0154106110ee57819350611110565b84600460ff8516608081106110ff57fe5b01541061110e57829350611110565bfe5b505050919050565b6000806000849150600090508360ff168583029060020a90049150816f03442c4e6074a82f1797f72ac000000002810190508360ff168583029060020a90049150816f0116b96f757c380fb287fd0e4000000002810190508360ff168583029060020a90049150816e45ae5bdd5f0e03eca1ff439000000002810190508360ff168583029060020a90049150816e0defabf91302cd95b9ffda5000000002810190508360ff168583029060020a90049150816e02529ca9832b22439efff9b800000002810190508360ff168583029060020a90049150816d54f1cf12bd04e516b6da8800000002810190508360ff168583029060020a90049150816d0a9e39e257a09ca2d6db5100000002810190508360ff168583029060020a90049150816d012e066e7b839fa050c30900000002810190508360ff168583029060020a90049150816c1e33d7d926c329a1ad1a80000002810190508360ff168583029060020a90049150816c02bee513bdb4a6b19b5f80000002810190508360ff168583029060020a90049150816b3a9316fa79b88eccf2a0000002810190508360ff168583029060020a90049150816b048177ebe1fa81237520000002810190508360ff168583029060020a90049150816a5263fe90242dcbacf0000002810190508360ff168583029060020a90049150816a057e22099c030d9410000002810190508360ff168583029060020a90049150816957e22099c030d941000002810190508360ff168583029060020a900491508169052b6b5456997631000002810190508360ff168583029060020a9004915081684985f67696bf74800002810190508360ff168583029060020a90049150816803dea12ea99e49800002810190508360ff168583029060020a90049150816731880f2214b6e00002810190508360ff168583029060020a900491508167025bcff56eb3600002810190508360ff168583029060020a9004915081661b722e10ab100002810190508360ff168583029060020a90049150816601317c7007700002810190508360ff168583029060020a9004915081650cba84aafa0002810190508360ff168583029060020a90049150816482573a0a0002810190508360ff168583029060020a90049150816405035ad90002810190508360ff168583029060020a9004915081632f881b0002810190508360ff168583029060020a90049150816301b2934002810190508360ff168583029060020a9004915081620efc4002810190508360ff168583029060020a9004915081617fe002810190508360ff168583029060020a900491508161042002810190508360ff168583029060020a9004915081602102810190508360ff168583029060020a9004915081600102810190508360ff1660019060020a02856f0688589cc0e9505e2f2fee55800000008381151561152f57fe5b04010195945050505050565b600080828161010082101561156b575b6001821115611566576001929092019160029091049061154b565b6115a5565b5060805b60008160ff1611156115a55760ff811660020a8210611598579182179160ff811660020a909104905b600260ff9091160461156f565b509093925050505600a165627a7a72305820332716623aca9aa43fd2bdf2a155d53f5f91c8413ab8ead042df9a75348805e30029",
  "source": "pragma solidity ^0.4.18;\n\nimport \"zeppelin-solidity/contracts/token/ERC20/StandardToken.sol\";\nimport \"zeppelin-solidity/contracts/ownership/Ownable.sol\";\nimport \"./BancorFormula.sol\";\n\n/**\n * @title Bonding Curve\n * @dev Bonding curve contract based on Bacor formula\n * inspired by bancor protocol and simondlr\n * https://github.com/bancorprotocol/contracts\n * https://github.com/ConsenSys/curationmarkets/blob/master/CurationMarkets.sol\n */\ncontract BondingCurve is StandardToken, BancorFormula, Ownable {\n  uint256 public poolBalance;\n\n  /*\n    reserve ratio, represented in ppm, 1-1000000\n    1/3 corresponds to y= multiple * x^2\n    1/2 corresponds to y= multiple * x\n    2/3 corresponds to y= multiple * x^1/2\n    multiple will depends on contract initialization,\n    specificallytotalAmount and poolBalance parameters\n    we might want to add an 'initialize' function that will allow\n    the owner to send ether to the contract and mint a given amount of tokens\n  */\n  uint32 public reserveRatio;\n\n  /*\n    - Front-running attacks are currently mitigated by the following mechanisms:\n    TODO - minimum return argument for each conversion provides a way to define a minimum/maximum price for the transaction\n    - gas price limit prevents users from having control over the order of execution\n  */\n  uint256 public gasPrice = 0 wei; // maximum gas price for bancor transactions\n\n  /**\n   * @dev default function\n   * gas ~ 91645\n   */\n  function() public payable {\n    buy();\n  }\n\n  /**\n   * @dev Buy tokens\n   * gas ~ 77825\n   * TODO implement maxAmount that helps prevent miner front-running\n   */\n  function buy() validGasPrice public payable returns(bool) {\n    require(msg.value > 0);\n    uint256 tokensToMint = calculatePurchaseReturn(totalSupply_, poolBalance, reserveRatio, msg.value);\n    totalSupply_ = totalSupply_.add(tokensToMint);\n    balances[msg.sender] = balances[msg.sender].add(tokensToMint);\n    poolBalance = poolBalance.add(msg.value);\n    LogMint(tokensToMint, msg.value);\n    return true;\n  }\n\n  /**\n   * @dev Sell tokens\n   * gas ~ 86936\n   * @param sellAmount Amount of tokens to withdraw\n   * TODO implement maxAmount that helps prevent miner front-running\n   */\n  function sell(uint256 sellAmount) validGasPrice public returns(bool) {\n    require(sellAmount > 0 && balances[msg.sender] >= sellAmount);\n    uint256 ethAmount = calculateSaleReturn(totalSupply_, poolBalance, reserveRatio, sellAmount);\n    msg.sender.transfer(ethAmount);\n    poolBalance = poolBalance.sub(ethAmount);\n    balances[msg.sender] = balances[msg.sender].sub(sellAmount);\n    totalSupply_ = totalSupply_.sub(sellAmount);\n    LogWithdraw(sellAmount, ethAmount);\n    return true;\n  }\n\n  // verifies that the gas price is lower than the universal limit\n  modifier validGasPrice() {\n    assert(tx.gasprice <= gasPrice);\n    _;\n  }\n\n  /**\n    @dev Allows the owner to update the gas price limit\n    @param _gasPrice The new gas price limit\n  */\n  function setGasPrice(uint256 _gasPrice) onlyOwner public {\n    require(_gasPrice > 0);\n    gasPrice = _gasPrice;\n  }\n\n  event LogMint(uint256 amountMinted, uint256 totalCost);\n  event LogWithdraw(uint256 amountWithdrawn, uint256 reward);\n  event LogBondingCurve(string logString, uint256 value);\n}\n\n",
  "sourcePath": "relevant-contracts/contracts/BondingCurve.sol",
  "compiler": {
    "name": "solc",
    "version": "0.4.24+commit.e67f0147.Emscripten.clang"
  },
  "schemaVersion": "2.0.1",
  "updatedAt": "2018-09-12T00:53:24.307Z"
}