{
  "contractName": "ContractIds",
  "abi": [
    {
      "constant": true,
      "inputs": [],
      "name": "BANCOR_CONVERTER_FACTORY",
      "outputs": [
        {
          "name": "",
          "type": "bytes32"
        }
      ],
      "payable": false,
      "stateMutability": "view",
      "type": "function"
    },
    {
      "constant": true,
      "inputs": [],
      "name": "BANCOR_FORMULA",
      "outputs": [
        {
          "name": "",
          "type": "bytes32"
        }
      ],
      "payable": false,
      "stateMutability": "view",
      "type": "function"
    },
    {
      "constant": true,
      "inputs": [],
      "name": "CONTRACT_FEATURES",
      "outputs": [
        {
          "name": "",
          "type": "bytes32"
        }
      ],
      "payable": false,
      "stateMutability": "view",
      "type": "function"
    },
    {
      "constant": true,
      "inputs": [],
      "name": "BANCOR_NETWORK",
      "outputs": [
        {
          "name": "",
          "type": "bytes32"
        }
      ],
      "payable": false,
      "stateMutability": "view",
      "type": "function"
    },
    {
      "constant": true,
      "inputs": [],
      "name": "BANCOR_GAS_PRICE_LIMIT",
      "outputs": [
        {
          "name": "",
          "type": "bytes32"
        }
      ],
      "payable": false,
      "stateMutability": "view",
      "type": "function"
    }
  ],
  "bytecode": "0x608060405234801561001057600080fd5b506101cc806100206000396000f30060806040526004361061006c5763ffffffff7c01000000000000000000000000000000000000000000000000000000006000350416635a46f06c81146100715780636d7bd3fc1461009857806383315b6e146100ad5780639232494e146100c25780639249993a146100d7575b600080fd5b34801561007d57600080fd5b506100866100ec565b60408051918252519081900360200190f35b3480156100a457600080fd5b50610086610110565b3480156100b957600080fd5b50610086610134565b3480156100ce57600080fd5b50610086610158565b3480156100e357600080fd5b5061008661017c565b7f42616e636f72436f6e766572746572466163746f72790000000000000000000081565b7f42616e636f72466f726d756c610000000000000000000000000000000000000081565b7f436f6e747261637446656174757265730000000000000000000000000000000081565b7f42616e636f724e6574776f726b0000000000000000000000000000000000000081565b7f42616e636f7247617350726963654c696d697400000000000000000000000000815600a165627a7a723058202e43a49c1242612aecd0981ea9dc483bdc615983050ea1d2dd0cf8a1b879d0020029",
  "source": "pragma solidity ^0.4.23;\n\n/**\n    Id definitions for bancor contracts\n\n    Can be used in conjunction with the contract registry to get contract addresses\n*/\ncontract ContractIds {\n    // generic\n    bytes32 public constant CONTRACT_FEATURES = \"ContractFeatures\";\n\n    // bancor logic\n    bytes32 public constant BANCOR_NETWORK = \"BancorNetwork\";\n    bytes32 public constant BANCOR_FORMULA = \"BancorFormula\";\n    bytes32 public constant BANCOR_GAS_PRICE_LIMIT = \"BancorGasPriceLimit\";\n    bytes32 public constant BANCOR_CONVERTER_FACTORY = \"BancorConverterFactory\";\n}\n",
  "sourcePath": "bancor-contracts/solidity/contracts/ContractIds.sol",
  "compiler": {
    "name": "solc",
    "version": "0.4.24+commit.e67f0147.Emscripten.clang"
  },
  "schemaVersion": "3.0.0-beta.0",
  "updatedAt": "2018-09-11T01:19:19.845Z"
}