{
  "contractName": "CuratedBondedCurve",
  "abi": [
    {
      "constant": false,
      "inputs": [
        {
          "name": "_spender",
          "type": "address"
        },
        {
          "name": "_value",
          "type": "uint256"
        }
      ],
      "name": "approve",
      "outputs": [
        {
          "name": "",
          "type": "bool"
        }
      ],
      "payable": false,
      "stateMutability": "nonpayable",
      "type": "function"
    },
    {
      "constant": true,
      "inputs": [],
      "name": "reserveRatio",
      "outputs": [
        {
          "name": "",
          "type": "uint32"
        }
      ],
      "payable": false,
      "stateMutability": "view",
      "type": "function"
    },
    {
      "constant": true,
      "inputs": [],
      "name": "totalSupply",
      "outputs": [
        {
          "name": "",
          "type": "uint256"
        }
      ],
      "payable": false,
      "stateMutability": "view",
      "type": "function"
    },
    {
      "constant": false,
      "inputs": [
        {
          "name": "_from",
          "type": "address"
        },
        {
          "name": "_to",
          "type": "address"
        },
        {
          "name": "_value",
          "type": "uint256"
        }
      ],
      "name": "transferFrom",
      "outputs": [
        {
          "name": "",
          "type": "bool"
        }
      ],
      "payable": false,
      "stateMutability": "nonpayable",
      "type": "function"
    },
    {
      "constant": true,
      "inputs": [
        {
          "name": "_supply",
          "type": "uint256"
        },
        {
          "name": "_connectorBalance",
          "type": "uint256"
        },
        {
          "name": "_connectorWeight",
          "type": "uint32"
        },
        {
          "name": "_depositAmount",
          "type": "uint256"
        }
      ],
      "name": "calculatePurchaseReturn",
      "outputs": [
        {
          "name": "",
          "type": "uint256"
        }
      ],
      "payable": false,
      "stateMutability": "view",
      "type": "function"
    },
    {
      "constant": true,
      "inputs": [
        {
          "name": "_supply",
          "type": "uint256"
        },
        {
          "name": "_connectorBalance",
          "type": "uint256"
        },
        {
          "name": "_connectorWeight",
          "type": "uint32"
        },
        {
          "name": "_sellAmount",
          "type": "uint256"
        }
      ],
      "name": "calculateSaleReturn",
      "outputs": [
        {
          "name": "",
          "type": "uint256"
        }
      ],
      "payable": false,
      "stateMutability": "view",
      "type": "function"
    },
    {
      "constant": true,
      "inputs": [],
      "name": "version",
      "outputs": [
        {
          "name": "",
          "type": "string"
        }
      ],
      "payable": false,
      "stateMutability": "view",
      "type": "function"
    },
    {
      "constant": false,
      "inputs": [
        {
          "name": "_spender",
          "type": "address"
        },
        {
          "name": "_subtractedValue",
          "type": "uint256"
        }
      ],
      "name": "decreaseApproval",
      "outputs": [
        {
          "name": "",
          "type": "bool"
        }
      ],
      "payable": false,
      "stateMutability": "nonpayable",
      "type": "function"
    },
    {
      "constant": true,
      "inputs": [
        {
          "name": "_owner",
          "type": "address"
        }
      ],
      "name": "balanceOf",
      "outputs": [
        {
          "name": "",
          "type": "uint256"
        }
      ],
      "payable": false,
      "stateMutability": "view",
      "type": "function"
    },
    {
      "constant": false,
      "inputs": [],
      "name": "renounceOwnership",
      "outputs": [],
      "payable": false,
      "stateMutability": "nonpayable",
      "type": "function"
    },
    {
      "constant": true,
      "inputs": [],
      "name": "owner",
      "outputs": [
        {
          "name": "",
          "type": "address"
        }
      ],
      "payable": false,
      "stateMutability": "view",
      "type": "function"
    },
    {
      "constant": true,
      "inputs": [],
      "name": "poolBalance",
      "outputs": [
        {
          "name": "",
          "type": "uint256"
        }
      ],
      "payable": false,
      "stateMutability": "view",
      "type": "function"
    },
    {
      "constant": false,
      "inputs": [
        {
          "name": "_to",
          "type": "address"
        },
        {
          "name": "_value",
          "type": "uint256"
        }
      ],
      "name": "transfer",
      "outputs": [
        {
          "name": "",
          "type": "bool"
        }
      ],
      "payable": false,
      "stateMutability": "nonpayable",
      "type": "function"
    },
    {
      "constant": false,
      "inputs": [
        {
          "name": "_gasPrice",
          "type": "uint256"
        }
      ],
      "name": "setGasPrice",
      "outputs": [],
      "payable": false,
      "stateMutability": "nonpayable",
      "type": "function"
    },
    {
      "constant": false,
      "inputs": [
        {
          "name": "_spender",
          "type": "address"
        },
        {
          "name": "_addedValue",
          "type": "uint256"
        }
      ],
      "name": "increaseApproval",
      "outputs": [
        {
          "name": "",
          "type": "bool"
        }
      ],
      "payable": false,
      "stateMutability": "nonpayable",
      "type": "function"
    },
    {
      "constant": true,
      "inputs": [
        {
          "name": "_owner",
          "type": "address"
        },
        {
          "name": "_spender",
          "type": "address"
        }
      ],
      "name": "allowance",
      "outputs": [
        {
          "name": "",
          "type": "uint256"
        }
      ],
      "payable": false,
      "stateMutability": "view",
      "type": "function"
    },
    {
      "constant": false,
      "inputs": [
        {
          "name": "_newOwner",
          "type": "address"
        }
      ],
      "name": "transferOwnership",
      "outputs": [],
      "payable": false,
      "stateMutability": "nonpayable",
      "type": "function"
    },
    {
      "constant": true,
      "inputs": [],
      "name": "gasPrice",
      "outputs": [
        {
          "name": "",
          "type": "uint256"
        }
      ],
      "payable": false,
      "stateMutability": "view",
      "type": "function"
    },
    {
      "inputs": [],
      "payable": false,
      "stateMutability": "nonpayable",
      "type": "constructor"
    },
    {
      "payable": true,
      "stateMutability": "payable",
      "type": "fallback"
    },
    {
      "anonymous": false,
      "inputs": [
        {
          "indexed": false,
          "name": "amountMinted",
          "type": "uint256"
        },
        {
          "indexed": false,
          "name": "totalCost",
          "type": "uint256"
        }
      ],
      "name": "LogMint",
      "type": "event"
    },
    {
      "anonymous": false,
      "inputs": [
        {
          "indexed": false,
          "name": "amountWithdrawn",
          "type": "uint256"
        },
        {
          "indexed": false,
          "name": "reward",
          "type": "uint256"
        }
      ],
      "name": "LogWithdraw",
      "type": "event"
    },
    {
      "anonymous": false,
      "inputs": [
        {
          "indexed": false,
          "name": "logString",
          "type": "string"
        },
        {
          "indexed": false,
          "name": "value",
          "type": "uint256"
        }
      ],
      "name": "LogBondingCurve",
      "type": "event"
    },
    {
      "anonymous": false,
      "inputs": [
        {
          "indexed": true,
          "name": "previousOwner",
          "type": "address"
        }
      ],
      "name": "OwnershipRenounced",
      "type": "event"
    },
    {
      "anonymous": false,
      "inputs": [
        {
          "indexed": true,
          "name": "previousOwner",
          "type": "address"
        },
        {
          "indexed": true,
          "name": "newOwner",
          "type": "address"
        }
      ],
      "name": "OwnershipTransferred",
      "type": "event"
    },
    {
      "anonymous": false,
      "inputs": [
        {
          "indexed": true,
          "name": "owner",
          "type": "address"
        },
        {
          "indexed": true,
          "name": "spender",
          "type": "address"
        },
        {
          "indexed": false,
          "name": "value",
          "type": "uint256"
        }
      ],
      "name": "Approval",
      "type": "event"
    },
    {
      "anonymous": false,
      "inputs": [
        {
          "indexed": true,
          "name": "from",
          "type": "address"
        },
        {
          "indexed": true,
          "name": "to",
          "type": "address"
        },
        {
          "indexed": false,
          "name": "value",
          "type": "uint256"
        }
      ],
      "name": "Transfer",
      "type": "event"
    },
    {
      "constant": false,
      "inputs": [],
      "name": "buy",
      "outputs": [
        {
          "name": "",
          "type": "bool"
        }
      ],
      "payable": true,
      "stateMutability": "payable",
      "type": "function"
    },
    {
      "constant": false,
      "inputs": [
        {
          "name": "sellAmount",
          "type": "uint256"
        }
      ],
      "name": "sell",
      "outputs": [
        {
          "name": "",
          "type": "bool"
        }
      ],
      "payable": false,
      "stateMutability": "nonpayable",
      "type": "function"
    }
  ],
  "bytecode": "0x60c0604052600360808190527f302e33000000000000000000000000000000000000000000000000000000000060a09081526200003e919081620008f5565b506040805180820190915260038082527f302e33000000000000000000000000000000000000000000000000000000000060209092019182526200008591608491620008f5565b5060006088556089805463ffffffff1916620dbba0179055348015620000aa57600080fd5b506001606060020a641c35fedd1502036024556001605e60020a646c3390ecc902036025556001606160020a640cf801476102036026556001605f60020a6431bdb23e1d02036027556001605b60020a6502fb1d8fe08302036028556001605a60020a6505b771955b3702036029556001605960020a650af67a93bb510203602a556001605860020a6515060c256cb30203602b556001605860020a651428a2f98d730203602c556001605660020a654d51566397090203602d556001605560020a65944620b0e70f0203602e557011c592761c666fffffffffffffffffffff602f5570110a688680a757ffffffffffffffffffff603055701056f1b5bedf77ffffffffffffffffffff603155700faadceceeff8bffffffffffffffffffff603255700f05dc6b27edadffffffffffffffffffff603355700e67a5a25da4107fffffffffffffffffff603455700dcff115b14eedffffffffffffffffffff603555700d3e7a392431239fffffffffffffffffff603655700cb2ff529eb71e4fffffffffffffffffff603755700c2d415c3db974afffffffffffffffffff603855700bad03e7d883f69bffffffffffffffffff603955700b320d03b2c343d5ffffffffffffffffff603a55700abc25204e02828dffffffffffffffffff603b55700a4b16f74ee4bb207fffffffffffffffff603c557009deaf736ac1f569ffffffffffffffffff603d55700976bd9952c7aa957fffffffffffffffff603e557009131271922eaa606fffffffffffffffff603f557008b380f3558668c46fffffffffffffffff604055700857ddf0117efa215bffffffffffffffff6041556001608360020a036042557007abbf6f6abb9d087fffffffffffffffff60435570075af62cbac95f7dfa7fffffffffffffff60445570070d7fb7452e187ac13fffffffffffffff6045557006c3390ecc8af379295fffffffffffffff60465570067c00a3b07ffc01fd6fffffffffffffff604755700637b647c39cbb9d3d27ffffffffffffff6048557005f63b1fc104dbd39587ffffffffffffff6049557005b771955b36e12f7235ffffffffffffff604a5570057b3d49dda84556d6f6ffffffffffffff604b5570054183095b2c8ececf30ffffffffffffff604c5570050a28be635ca2b888f77fffffffffffff604d557004d5156639708c9db33c3fffffffffffff604e557004a23105873875bd52dfdfffffffffffff604f55700471649d87199aa990756fffffffffffff6050557004429a21a029d4c1457cfbffffffffffff605155700415bc6d6fb7dd71af2cb3ffffffffffff6052557003eab73b3bbfe282243ce1ffffffffffff6053557003c1771ac9fb6b4c18e229ffffffffffff605455700399e96897690418f785257fffffffffff605555700373fc456c53bb779bf0ea9fffffffffff60565570034f9e8e490c48e67e6ab8bfffffffffff60575570032cbfd4a7adc790560b3337ffffffffff60585570030b50570f6e5d2acca94613ffffffffff6059557002eb40f9f620fda6b56c2861ffffffffff605a557002cc8340ecb0d0f520a6af58ffffffffff605b557002af09481380a0a35cf1ba02ffffffffff605c55700292c5bdd3b92ec810287b1b3fffffffff605d55700277abdcdab07d5a77ac6d6b9fffffffff605e5570025daf6654b1eaa55fd64df5efffffffff605f55700244c49c648baa98192dce88b7ffffffff60605570022ce03cd5619a311b2471268bffffffff606155700215f77c045fbe885654a44a0fffffffff6062556001608160020a036063557001eaefdbdaaee7421fc4d3ede5ffffffff6064557001d6bd8b2eb257df7e8ca57b09bfffffff6065557001c35fedd14b861eb0443f7f133fffffff6066557001b0ce43b322bcde4a56e8ada5afffffff60675570019f0028ec1fff007f5a195a39dfffffff60685570018ded91f0e72ee74f49b15ba527ffffff60695570017d8ec7f04136f4e5615fd41a63ffffff606a5570016ddc6556cdb84bdc8d12d22e6fffffff606b5570015ecf52776a1155b5bd8395814f7fffff606c5570015060c256cb23b3b3cc3754cf40ffffff606d557001428a2f98d728ae223ddab715be3fffff606e5570013545598e5c23276ccf0ede68034fffff606f557001288c4161ce1d6f54b7f61081194fffff60705570011c592761c666aa641d5a01a40f17ffff607155700110a688680a7530515f3e6e6cfdcdffff6072557001056f1b5bedf75c6bcb2ce8aed428ffff6073556ffaadceceeff8a0890f3875f008277fff6074556ff05dc6b27edad306388a600f6ba0bfff6075556fe67a5a25da41063de1495d5b18cdbfff6076556fdcff115b14eedde6fc3aa5353f2e4fff6077556fd3e7a3924312399f9aae2e0f868f8fff6078556fcb2ff529eb71e41582cccd5a1ee26fff6079556fc2d415c3db974ab32a51840c0b67edff607a556fbad03e7d883f69ad5b0a186184e06bff607b556fb320d03b2c343d4829abd6075f0cc5ff607c556fabc25204e02828d73c6e80bcdb1a95bf607d556fa4b16f74ee4bb2040a1ec6c15fbbf2df607e556f9deaf736ac1f569deb1b5ae3f36c130f607f556f976bd9952c7aa957f5937d790ef650376080556f9131271922eaa6064b73a22d0bd4f2bf6081556f8b380f3558668c46c91c49a2f8e967b96082556f857ddf0117efa215952912839f6473e660835560858054600160a060020a031916331790556086546200087d90600164010000000062000ded620008e182021704565b608655600180546200089d9164010000000062000ded620008e182021704565b600190815533600090815260208190526040902054620008cb9164010000000062000ded620008e182021704565b336000908152602081905260409020556200099a565b81810182811015620008ef57fe5b92915050565b828054600181600116156101000203166002900490600052602060002090601f016020900481019282601f106200093857805160ff191683800117855562000968565b8280016001018555821562000968579182015b82811115620009685782518255916020019190600101906200094b565b50620009769291506200097a565b5090565b6200099791905b8082111562000976576000815560010162000981565b90565b6115bd80620009aa6000396000f3006080604052600436106101115763ffffffff7c0100000000000000000000000000000000000000000000000000000000600035041663095ea7b3811461011c5780630c7d5cd81461015457806318160ddd1461018257806323b872dd146101a957806329a00e7c146101d357806349f9b0f7146101fa57806354fd4d501461022157806366188463146102ab57806370a08231146102cf578063715018a6146102f05780638da5cb5b1461030757806396365d4414610338578063a6f2ae3a1461034d578063a9059cbb14610355578063bf1fe42014610379578063d73dd62314610391578063dd62ed3e146103b5578063e4849b32146103dc578063f2fde38b146103f4578063fe173b9714610415575b61011961042a565b50005b34801561012857600080fd5b50610140600160a060020a03600435166024356104f5565b604080519115158252519081900360200190f35b34801561016057600080fd5b5061016961055c565b6040805163ffffffff9092168252519081900360200190f35b34801561018e57600080fd5b50610197610568565b60408051918252519081900360200190f35b3480156101b557600080fd5b50610140600160a060020a036004358116906024351660443561056e565b3480156101df57600080fd5b5061019760043560243563ffffffff604435166064356106e3565b34801561020657600080fd5b5061019760043560243563ffffffff604435166064356107c8565b34801561022d57600080fd5b506102366108c4565b6040805160208082528351818301528351919283929083019185019080838360005b83811015610270578181015183820152602001610258565b50505050905090810190601f16801561029d5780820380516001836020036101000a031916815260200191505b509250505060405180910390f35b3480156102b757600080fd5b50610140600160a060020a0360043516602435610952565b3480156102db57600080fd5b50610197600160a060020a0360043516610a41565b3480156102fc57600080fd5b50610305610a5c565b005b34801561031357600080fd5b5061031c610aca565b60408051600160a060020a039092168252519081900360200190f35b34801561034457600080fd5b50610197610ad9565b61014061042a565b34801561036157600080fd5b50610140600160a060020a0360043516602435610adf565b34801561038557600080fd5b50610305600435610bbe565b34801561039d57600080fd5b50610140600160a060020a0360043516602435610be7565b3480156103c157600080fd5b50610197600160a060020a0360043581169060243516610c80565b3480156103e857600080fd5b50610140600435610cab565b34801561040057600080fd5b50610305600160a060020a0360043516610dc4565b34801561042157600080fd5b50610197610de7565b60008034811061043957600080fd5b60015460865460895461045492919063ffffffff16346106e3565b60015490915061046a908263ffffffff610ded16565b6001553360009081526020819052604090205461048d908263ffffffff610ded16565b336000908152602081905260409020556086546104b0903463ffffffff610ded16565b6086556040805182815234602082015281517fe7360c0fa1984a85874443100f5b25dd4f84192659660eb199f6c96e11defbcb929181900390910190a1600191505090565b336000818152600260209081526040808320600160a060020a038716808552908352818420869055815186815291519394909390927f8c5be1e5ebec7d5bd14f71427d1e84f3dd0314c0f7b2291e5b200ac8c7c3b925928290030190a35060015b92915050565b60895463ffffffff1681565b60015490565b600160a060020a03831660009081526020819052604081205482111561059357600080fd5b600160a060020a03841660009081526002602090815260408083203384529091529020548211156105c357600080fd5b600160a060020a03831615156105d857600080fd5b600160a060020a038416600090815260208190526040902054610601908363ffffffff610dfa16565b600160a060020a038086166000908152602081905260408082209390935590851681522054610636908363ffffffff610ded16565b600160a060020a03808516600090815260208181526040808320949094559187168152600282528281203382529091522054610678908363ffffffff610dfa16565b600160a060020a03808616600081815260026020908152604080832033845282529182902094909455805186815290519287169391927fddf252ad1be2c89b69c2b068fc378daa952ba7f163c4a11628f55a4df523b3ef929181900390910190a35060019392505050565b600080600080600080891180156106fa5750600088115b801561070c575060008763ffffffff16115b80156107215750620f424063ffffffff881611155b151561072c57600080fd5b85151561073c57600094506107bc565b63ffffffff8716620f424014156107745761076d886107618b8963ffffffff610e0c16565b9063ffffffff610e3516565b94506107bc565b610784868963ffffffff610ded16565b9150610795828989620f4240610e4a565b909450925060ff83166107ae8a8663ffffffff610e0c16565b9060020a9004905088810394505b50505050949350505050565b60008060008060008060008a1180156107e15750600089115b80156107f3575060008863ffffffff16115b80156108085750620f424063ffffffff891611155b80156108145750898711155b151561081f57600080fd5b86151561082f57600095506108b7565b8987141561083f578895506108b7565b63ffffffff8816620f4240141561086b576108648a6107618b8a63ffffffff610e0c16565b95506108b7565b868a03925061087f8a84620f42408b610e4a565b9095509350610894898663ffffffff610e0c16565b91505060ff831660020a88026108b485610761848463ffffffff610dfa16565b95505b5050505050949350505050565b6084805460408051602060026001851615610100026000190190941693909304601f8101849004840282018401909252818152929183018282801561094a5780601f1061091f5761010080835404028352916020019161094a565b820191906000526020600020905b81548152906001019060200180831161092d57829003601f168201915b505050505081565b336000908152600260209081526040808320600160a060020a03861684529091528120548083106109a657336000908152600260209081526040808320600160a060020a03881684529091528120556109db565b6109b6818463ffffffff610dfa16565b336000908152600260209081526040808320600160a060020a03891684529091529020555b336000818152600260209081526040808320600160a060020a0389168085529083529281902054815190815290519293927f8c5be1e5ebec7d5bd14f71427d1e84f3dd0314c0f7b2291e5b200ac8c7c3b925929181900390910190a35060019392505050565b600160a060020a031660009081526020819052604090205490565b608554600160a060020a03163314610a7357600080fd5b608554604051600160a060020a03909116907ff8df31144d9c2f0f6b59d69b8b98abd5459d07f2742c4df920b25aae33c6482090600090a26085805473ffffffffffffffffffffffffffffffffffffffff19169055565b608554600160a060020a031681565b60865481565b33600090815260208190526040812054821115610afb57600080fd5b600160a060020a0383161515610b1057600080fd5b33600090815260208190526040902054610b30908363ffffffff610dfa16565b3360009081526020819052604080822092909255600160a060020a03851681522054610b62908363ffffffff610ded16565b600160a060020a038416600081815260208181526040918290209390935580518581529051919233927fddf252ad1be2c89b69c2b068fc378daa952ba7f163c4a11628f55a4df523b3ef9281900390910190a350600192915050565b608554600160a060020a03163314610bd557600080fd5b60008111610be257600080fd5b608855565b336000908152600260209081526040808320600160a060020a0386168452909152812054610c1b908363ffffffff610ded16565b336000818152600260209081526040808320600160a060020a0389168085529083529281902085905580519485525191937f8c5be1e5ebec7d5bd14f71427d1e84f3dd0314c0f7b2291e5b200ac8c7c3b925929081900390910190a350600192915050565b600160a060020a03918216600090815260026020908152604080832093909416825291909152205490565b600080600083118015610ccd5750336000908152602081905260409020548311155b1515610cd857600080fd5b600154608654608954610cf392919063ffffffff16866107c8565b604051909150339082156108fc029083906000818181858888f19350505050158015610d23573d6000803e3d6000fd5b50608654610d37908263ffffffff610dfa16565b60865533600090815260208190526040902054610d5a908463ffffffff610dfa16565b33600090815260208190526040902055600154610d7d908463ffffffff610dfa16565b600155604080518481526020810183905281517f210405eb88ac7589aa9de0a6e36b9c9d3cd6e4061b74363d250a77afe3c6efb7929181900390910190a150600192915050565b608554600160a060020a03163314610ddb57600080fd5b610de481610ea3565b50565b60885481565b8181018281101561055657fe5b600082821115610e0657fe5b50900390565b6000821515610e1d57506000610556565b50818102818382811515610e2d57fe5b041461055657fe5b60008183811515610e4257fe5b049392505050565b6000806000808463ffffffff168663ffffffff16610e688a8a610f21565b02811515610e7257fe5b049150610e7e82611064565b9050610e9660ff607f8390031660020a8304826110fb565b9890975095505050505050565b600160a060020a0381161515610eb857600080fd5b608554604051600160a060020a038084169216907f8be0079c531659141344cd1fd0a4f28419497f9722a3daafe3b4186f6b6457e090600090a36085805473ffffffffffffffffffffffffffffffffffffffff1916600160a060020a0392909216919091179055565b6000808080807001ffffffffffffffffffffffffffffffff871115610f4257fe5b60009350856f800000000000000000000000000000008802811515610f6357fe5b0492507001000000000000000000000000000000008310610fbc57610f996f80000000000000000000000000000000840461151e565b60ff81166f800000000000000000000000000000008102955060020a9093049291505b6f800000000000000000000000000000008311156110335750607f5b60008160ff161115611033576f80000000000000000000000000000000838002049250700100000000000000000000000000000000831061102a5760ff600019820116600290810a9490940193909204915b60001901610fd8565b6f040000000000000000000000000000006f02c5c85fdf473de6af278ece600fcbda85020494505050505092915050565b60006020607f825b8160ff168360010160ff1610156110b157600260ff8484011604905084600460ff83166080811061109957fe5b0154106110a8578092506110ac565b8091505b61106c565b84600460ff8416608081106110c257fe5b0154106110d1578193506110f3565b84600460ff8516608081106110e257fe5b0154106110f1578293506110f3565bfe5b505050919050565b6000806000849150600090508360ff168583029060020a90049150816f03442c4e6074a82f1797f72ac000000002810190508360ff168583029060020a90049150816f0116b96f757c380fb287fd0e4000000002810190508360ff168583029060020a90049150816e45ae5bdd5f0e03eca1ff439000000002810190508360ff168583029060020a90049150816e0defabf91302cd95b9ffda5000000002810190508360ff168583029060020a90049150816e02529ca9832b22439efff9b800000002810190508360ff168583029060020a90049150816d54f1cf12bd04e516b6da8800000002810190508360ff168583029060020a90049150816d0a9e39e257a09ca2d6db5100000002810190508360ff168583029060020a90049150816d012e066e7b839fa050c30900000002810190508360ff168583029060020a90049150816c1e33d7d926c329a1ad1a80000002810190508360ff168583029060020a90049150816c02bee513bdb4a6b19b5f80000002810190508360ff168583029060020a90049150816b3a9316fa79b88eccf2a0000002810190508360ff168583029060020a90049150816b048177ebe1fa81237520000002810190508360ff168583029060020a90049150816a5263fe90242dcbacf0000002810190508360ff168583029060020a90049150816a057e22099c030d9410000002810190508360ff168583029060020a90049150816957e22099c030d941000002810190508360ff168583029060020a900491508169052b6b5456997631000002810190508360ff168583029060020a9004915081684985f67696bf74800002810190508360ff168583029060020a90049150816803dea12ea99e49800002810190508360ff168583029060020a90049150816731880f2214b6e00002810190508360ff168583029060020a900491508167025bcff56eb3600002810190508360ff168583029060020a9004915081661b722e10ab100002810190508360ff168583029060020a90049150816601317c7007700002810190508360ff168583029060020a9004915081650cba84aafa0002810190508360ff168583029060020a90049150816482573a0a0002810190508360ff168583029060020a90049150816405035ad90002810190508360ff168583029060020a9004915081632f881b0002810190508360ff168583029060020a90049150816301b2934002810190508360ff168583029060020a9004915081620efc4002810190508360ff168583029060020a9004915081617fe002810190508360ff168583029060020a900491508161042002810190508360ff168583029060020a9004915081602102810190508360ff168583029060020a9004915081600102810190508360ff1660019060020a02856f0688589cc0e9505e2f2fee55800000008381151561151257fe5b04010195945050505050565b600080828161010082101561154e575b6001821115611549576001929092019160029091049061152e565b611588565b5060805b60008160ff1611156115885760ff811660020a821061157b579182179160ff811660020a909104905b600260ff90911604611552565b509093925050505600a165627a7a72305820e264f8ddca4e2393a6944adcf5fdebc74891be79b380fde7444cfee19fd591c60029",
  "source": "pragma solidity^0.4.24;\n\nimport \"relevant-contracts/contracts/BondingCurve.sol\";\n\ncontract CuratedBondedCurve is BondingCurve {\n\n    uint32 public reserveRatio = 900000;\n\n    constructor() public {\n        poolBalance = poolBalance.add(1);\n        totalSupply_ = totalSupply_.add(1);\n        balances[msg.sender] = balances[msg.sender].add(1);\n    }\n\n    function buy() public payable returns(bool) {\n        require(msg.value > 0);\n        uint256 tokensToMint = calculatePurchaseReturn(totalSupply_, poolBalance, reserveRatio, msg.value);\n        totalSupply_ = totalSupply_.add(tokensToMint);\n        balances[msg.sender] = balances[msg.sender].add(tokensToMint);\n        poolBalance = poolBalance.add(msg.value);\n        LogMint(tokensToMint, msg.value);\n        return true;\n    }\n\n    function sell(uint256 sellAmount) public returns(bool) {\n        require(sellAmount > 0 && balances[msg.sender] >= sellAmount);\n        uint256 ethAmount = calculateSaleReturn(totalSupply_, poolBalance, reserveRatio, sellAmount);\n        msg.sender.transfer(ethAmount);\n        poolBalance = poolBalance.sub(ethAmount);\n        balances[msg.sender] = balances[msg.sender].sub(sellAmount);\n        totalSupply_ = totalSupply_.sub(sellAmount);\n        LogWithdraw(sellAmount, ethAmount);\n        return true;\n    }\n}\n",
  "sourcePath": "/Users/elliot/Documents/reddit-cash/contracts/CuratedBondedCurve.sol",
  "compiler": {
    "name": "solc",
    "version": "0.4.24+commit.e67f0147.Emscripten.clang"
  },
  "schemaVersion": "2.0.1",
  "updatedAt": "2018-09-12T00:13:42.454Z"
}