{
  "contractName": "FeatureIds",
  "abi": [
    {
      "constant": true,
      "inputs": [],
      "name": "CONVERTER_CONVERSION_WHITELIST",
      "outputs": [
        {
          "name": "",
          "type": "uint256"
        }
      ],
      "payable": false,
      "stateMutability": "view",
      "type": "function"
    }
  ],
  "bytecode": "0x6080604052348015600f57600080fd5b5060988061001e6000396000f300608060405260043610603e5763ffffffff7c010000000000000000000000000000000000000000000000000000000060003504166392d1abb781146043575b600080fd5b348015604e57600080fd5b5060556067565b60408051918252519081900360200190f35b6001815600a165627a7a72305820194da94172bd52fd692d246492f0705337e21c4c58670008e16bc073b9313a1d0029",
  "source": "pragma solidity ^0.4.23;\n\n/**\n    Id definitions for bancor contract features\n\n    Can be used to query the ContractFeatures contract to check whether a certain feature is supported by a contract\n*/\ncontract FeatureIds {\n    // converter features\n    uint256 public constant CONVERTER_CONVERSION_WHITELIST = 1 << 0;\n}\n",
  "sourcePath": "bancor-contracts/solidity/contracts/FeatureIds.sol",
  "compiler": {
    "name": "solc",
    "version": "0.4.24+commit.e67f0147.Emscripten.clang"
  },
  "schemaVersion": "3.0.0-beta.0",
  "updatedAt": "2018-09-11T01:19:19.845Z"
}