{
  "contractName": "SmartTokenController",
  "abi": [
    {
      "constant": false,
      "inputs": [
        {
          "name": "_token",
          "type": "address"
        },
        {
          "name": "_to",
          "type": "address"
        },
        {
          "name": "_amount",
          "type": "uint256"
        }
      ],
      "name": "withdrawTokens",
      "outputs": [],
      "payable": false,
      "stateMutability": "nonpayable",
      "type": "function"
    },
    {
      "constant": false,
      "inputs": [],
      "name": "acceptOwnership",
      "outputs": [],
      "payable": false,
      "stateMutability": "nonpayable",
      "type": "function"
    },
    {
      "constant": true,
      "inputs": [],
      "name": "owner",
      "outputs": [
        {
          "name": "",
          "type": "address"
        }
      ],
      "payable": false,
      "stateMutability": "view",
      "type": "function"
    },
    {
      "constant": true,
      "inputs": [],
      "name": "newOwner",
      "outputs": [
        {
          "name": "",
          "type": "address"
        }
      ],
      "payable": false,
      "stateMutability": "view",
      "type": "function"
    },
    {
      "constant": false,
      "inputs": [
        {
          "name": "_newOwner",
          "type": "address"
        }
      ],
      "name": "transferOwnership",
      "outputs": [],
      "payable": false,
      "stateMutability": "nonpayable",
      "type": "function"
    },
    {
      "constant": true,
      "inputs": [],
      "name": "token",
      "outputs": [
        {
          "name": "",
          "type": "address"
        }
      ],
      "payable": false,
      "stateMutability": "view",
      "type": "function"
    },
    {
      "inputs": [
        {
          "name": "_token",
          "type": "address"
        }
      ],
      "payable": false,
      "stateMutability": "nonpayable",
      "type": "constructor"
    },
    {
      "anonymous": false,
      "inputs": [
        {
          "indexed": true,
          "name": "_prevOwner",
          "type": "address"
        },
        {
          "indexed": true,
          "name": "_newOwner",
          "type": "address"
        }
      ],
      "name": "OwnerUpdate",
      "type": "event"
    },
    {
      "constant": false,
      "inputs": [
        {
          "name": "_newOwner",
          "type": "address"
        }
      ],
      "name": "transferTokenOwnership",
      "outputs": [],
      "payable": false,
      "stateMutability": "nonpayable",
      "type": "function"
    },
    {
      "constant": false,
      "inputs": [],
      "name": "acceptTokenOwnership",
      "outputs": [],
      "payable": false,
      "stateMutability": "nonpayable",
      "type": "function"
    },
    {
      "constant": false,
      "inputs": [
        {
          "name": "_disable",
          "type": "bool"
        }
      ],
      "name": "disableTokenTransfers",
      "outputs": [],
      "payable": false,
      "stateMutability": "nonpayable",
      "type": "function"
    },
    {
      "constant": false,
      "inputs": [
        {
          "name": "_token",
          "type": "address"
        },
        {
          "name": "_to",
          "type": "address"
        },
        {
          "name": "_amount",
          "type": "uint256"
        }
      ],
      "name": "withdrawFromToken",
      "outputs": [],
      "payable": false,
      "stateMutability": "nonpayable",
      "type": "function"
    }
  ],
  "bytecode": "0x608060405234801561001057600080fd5b506040516020806106f9833981016040525160008054600160a060020a0319163317905580600160a060020a038116151561004a57600080fd5b5060028054600160a060020a031916600160a060020a039290921691909117905561067f8061007a6000396000f3006080604052600436106100a35763ffffffff7c010000000000000000000000000000000000000000000000000000000060003504166321e6b53d81146100a857806338a5e016146100cb57806341a5b33d146100e05780635e35359e1461010a57806379ba50971461013457806385d5e631146101495780638da5cb5b14610163578063d4ee1d9014610194578063f2fde38b146101a9578063fc0c546a146101ca575b600080fd5b3480156100b457600080fd5b506100c9600160a060020a03600435166101df565b005b3480156100d757600080fd5b506100c9610275565b3480156100ec57600080fd5b506100c9600160a060020a036004358116906024351660443561030f565b34801561011657600080fd5b506100c9600160a060020a03600435811690602435166044356103b6565b34801561014057600080fd5b506100c96104c5565b34801561015557600080fd5b506100c9600435151561054d565b34801561016f57600080fd5b506101786105c8565b60408051600160a060020a039092168252519081900360200190f35b3480156101a057600080fd5b506101786105d7565b3480156101b557600080fd5b506100c9600160a060020a03600435166105e6565b3480156101d657600080fd5b50610178610644565b600054600160a060020a031633146101f357fe5b600254604080517ff2fde38b000000000000000000000000000000000000000000000000000000008152600160a060020a0384811660048301529151919092169163f2fde38b91602480830192600092919082900301818387803b15801561025a57600080fd5b505af115801561026e573d6000803e3d6000fd5b5050505050565b600054600160a060020a0316331461028957fe5b600260009054906101000a9004600160a060020a0316600160a060020a03166379ba50976040518163ffffffff167c0100000000000000000000000000000000000000000000000000000000028152600401600060405180830381600087803b1580156102f557600080fd5b505af1158015610309573d6000803e3d6000fd5b50505050565b600054600160a060020a0316331461032357fe5b600254604080517f5e35359e000000000000000000000000000000000000000000000000000000008152600160a060020a03868116600483015285811660248301526044820185905291519190921691635e35359e91606480830192600092919082900301818387803b15801561039957600080fd5b505af11580156103ad573d6000803e3d6000fd5b50505050505050565b600054600160a060020a031633146103ca57fe5b82600160a060020a03811615156103e057600080fd5b82600160a060020a03811615156103f657600080fd5b83600160a060020a03811630141561040d57600080fd5b85600160a060020a031663a9059cbb86866040518363ffffffff167c01000000000000000000000000000000000000000000000000000000000281526004018083600160a060020a0316600160a060020a0316815260200182815260200192505050602060405180830381600087803b15801561048957600080fd5b505af115801561049d573d6000803e3d6000fd5b505050506040513d60208110156104b357600080fd5b505115156104bd57fe5b505050505050565b600154600160a060020a031633146104dc57600080fd5b60015460008054604051600160a060020a0393841693909116917f343765429aea5a34b3ff6a3785a98a5abb2597aca87bfbb58632c173d585373a91a3600180546000805473ffffffffffffffffffffffffffffffffffffffff19908116600160a060020a03841617909155169055565b600054600160a060020a0316331461056157fe5b600254604080517f1608f18f00000000000000000000000000000000000000000000000000000000815283151560048201529051600160a060020a0390921691631608f18f9160248082019260009290919082900301818387803b15801561025a57600080fd5b600054600160a060020a031681565b600154600160a060020a031681565b600054600160a060020a031633146105fa57fe5b600054600160a060020a038281169116141561061557600080fd5b6001805473ffffffffffffffffffffffffffffffffffffffff1916600160a060020a0392909216919091179055565b600254600160a060020a0316815600a165627a7a723058201069e18dfd089e48c78d50a61d7e58dc0d5c004e52a0ed59711a614ce2ffd52c0029",
  "source": "pragma solidity ^0.4.23;\nimport './interfaces/ISmartToken.sol';\nimport '../utility/TokenHolder.sol';\n\n/*\n    The smart token controller is an upgradable part of the smart token that allows\n    more functionality as well as fixes for bugs/exploits.\n    Once it accepts ownership of the token, it becomes the token's sole controller\n    that can execute any of its functions.\n\n    To upgrade the controller, ownership must be transferred to a new controller, along with\n    any relevant data.\n\n    The smart token must be set on construction and cannot be changed afterwards.\n    Wrappers are provided (as opposed to a single 'execute' function) for each of the token's functions, for easier access.\n\n    Note that the controller can transfer token ownership to a new controller that\n    doesn't allow executing any function on the token, for a trustless solution.\n    Doing that will also remove the owner's ability to upgrade the controller.\n*/\ncontract SmartTokenController is TokenHolder {\n    ISmartToken public token;   // smart token\n\n    /**\n        @dev constructor\n    */\n    constructor(ISmartToken _token)\n        public\n        validAddress(_token)\n    {\n        token = _token;\n    }\n\n    // ensures that the controller is the token's owner\n    modifier active() {\n        assert(token.owner() == address(this));\n        _;\n    }\n\n    // ensures that the controller is not the token's owner\n    modifier inactive() {\n        assert(token.owner() != address(this));\n        _;\n    }\n\n    /**\n        @dev allows transferring the token ownership\n        the new owner still need to accept the transfer\n        can only be called by the contract owner\n\n        @param _newOwner    new token owner\n    */\n    function transferTokenOwnership(address _newOwner) public ownerOnly {\n        token.transferOwnership(_newOwner);\n    }\n\n    /**\n        @dev used by a new owner to accept a token ownership transfer\n        can only be called by the contract owner\n    */\n    function acceptTokenOwnership() public ownerOnly {\n        token.acceptOwnership();\n    }\n\n    /**\n        @dev disables/enables token transfers\n        can only be called by the contract owner\n\n        @param _disable    true to disable transfers, false to enable them\n    */\n    function disableTokenTransfers(bool _disable) public ownerOnly {\n        token.disableTransfers(_disable);\n    }\n\n    /**\n        @dev withdraws tokens held by the controller and sends them to an account\n        can only be called by the owner\n\n        @param _token   ERC20 token contract address\n        @param _to      account to receive the new amount\n        @param _amount  amount to withdraw\n    */\n    function withdrawFromToken(\n        IERC20Token _token, \n        address _to, \n        uint256 _amount\n    ) \n        public\n        ownerOnly\n    {\n        ITokenHolder(token).withdrawTokens(_token, _to, _amount);\n    }\n}\n",
  "sourcePath": "bancor-contracts/solidity/contracts/token/SmartTokenController.sol",
  "compiler": {
    "name": "solc",
    "version": "0.4.24+commit.e67f0147.Emscripten.clang"
  },
  "schemaVersion": "3.0.0-beta.0",
  "updatedAt": "2018-09-11T01:19:19.857Z"
}