{
  "contractName": "TestERC20Token",
  "abi": [
    {
      "constant": true,
      "inputs": [],
      "name": "name",
      "outputs": [
        {
          "name": "",
          "type": "string"
        }
      ],
      "payable": false,
      "stateMutability": "view",
      "type": "function"
    },
    {
      "constant": false,
      "inputs": [
        {
          "name": "_spender",
          "type": "address"
        },
        {
          "name": "_value",
          "type": "uint256"
        }
      ],
      "name": "approve",
      "outputs": [
        {
          "name": "success",
          "type": "bool"
        }
      ],
      "payable": false,
      "stateMutability": "nonpayable",
      "type": "function"
    },
    {
      "constant": true,
      "inputs": [],
      "name": "totalSupply",
      "outputs": [
        {
          "name": "",
          "type": "uint256"
        }
      ],
      "payable": false,
      "stateMutability": "view",
      "type": "function"
    },
    {
      "constant": false,
      "inputs": [
        {
          "name": "_from",
          "type": "address"
        },
        {
          "name": "_to",
          "type": "address"
        },
        {
          "name": "_value",
          "type": "uint256"
        }
      ],
      "name": "transferFrom",
      "outputs": [
        {
          "name": "success",
          "type": "bool"
        }
      ],
      "payable": false,
      "stateMutability": "nonpayable",
      "type": "function"
    },
    {
      "constant": true,
      "inputs": [],
      "name": "decimals",
      "outputs": [
        {
          "name": "",
          "type": "uint8"
        }
      ],
      "payable": false,
      "stateMutability": "view",
      "type": "function"
    },
    {
      "constant": true,
      "inputs": [],
      "name": "standard",
      "outputs": [
        {
          "name": "",
          "type": "string"
        }
      ],
      "payable": false,
      "stateMutability": "view",
      "type": "function"
    },
    {
      "constant": true,
      "inputs": [
        {
          "name": "",
          "type": "address"
        }
      ],
      "name": "balanceOf",
      "outputs": [
        {
          "name": "",
          "type": "uint256"
        }
      ],
      "payable": false,
      "stateMutability": "view",
      "type": "function"
    },
    {
      "constant": true,
      "inputs": [],
      "name": "symbol",
      "outputs": [
        {
          "name": "",
          "type": "string"
        }
      ],
      "payable": false,
      "stateMutability": "view",
      "type": "function"
    },
    {
      "constant": false,
      "inputs": [
        {
          "name": "_to",
          "type": "address"
        },
        {
          "name": "_value",
          "type": "uint256"
        }
      ],
      "name": "transfer",
      "outputs": [
        {
          "name": "success",
          "type": "bool"
        }
      ],
      "payable": false,
      "stateMutability": "nonpayable",
      "type": "function"
    },
    {
      "constant": true,
      "inputs": [
        {
          "name": "",
          "type": "address"
        },
        {
          "name": "",
          "type": "address"
        }
      ],
      "name": "allowance",
      "outputs": [
        {
          "name": "",
          "type": "uint256"
        }
      ],
      "payable": false,
      "stateMutability": "view",
      "type": "function"
    },
    {
      "inputs": [
        {
          "name": "_name",
          "type": "string"
        },
        {
          "name": "_symbol",
          "type": "string"
        },
        {
          "name": "_supply",
          "type": "uint256"
        }
      ],
      "payable": false,
      "stateMutability": "nonpayable",
      "type": "constructor"
    },
    {
      "anonymous": false,
      "inputs": [
        {
          "indexed": true,
          "name": "_from",
          "type": "address"
        },
        {
          "indexed": true,
          "name": "_to",
          "type": "address"
        },
        {
          "indexed": false,
          "name": "_value",
          "type": "uint256"
        }
      ],
      "name": "Transfer",
      "type": "event"
    },
    {
      "anonymous": false,
      "inputs": [
        {
          "indexed": true,
          "name": "_owner",
          "type": "address"
        },
        {
          "indexed": true,
          "name": "_spender",
          "type": "address"
        },
        {
          "indexed": false,
          "name": "_value",
          "type": "uint256"
        }
      ],
      "name": "Approval",
      "type": "event"
    }
  ],
  "bytecode": "0x60c0604052600960808190527f546f6b656e20302e31000000000000000000000000000000000000000000000060a090815261003e9160009190610141565b5060408051602081019182905260009081905261005d91600191610141565b5060408051602081019182905260009081905261007c91600291610141565b506003805460ff19169055600060045534801561009857600080fd5b506040516108d83803806108d8833981016040908152815160208301519183015190830180519093929092019183908390600090811080156100db575060008251115b15156100e657600080fd5b82516100f9906001906020860190610141565b50815161010d906002906020850190610141565b506003805460ff191660ff929092169190911790555050600481905533600090815260056020526040902055506101dc9050565b828054600181600116156101000203166002900490600052602060002090601f016020900481019282601f1061018257805160ff19168380011785556101af565b828001600101855582156101af579182015b828111156101af578251825591602001919060010190610194565b506101bb9291506101bf565b5090565b6101d991905b808211156101bb57600081556001016101c5565b90565b6106ed806101eb6000396000f3006080604052600436106100a35763ffffffff7c010000000000000000000000000000000000000000000000000000000060003504166306fdde0381146100a8578063095ea7b31461013257806318160ddd1461016a57806323b872dd14610191578063313ce567146101bb5780635a3b7e42146101e657806370a08231146101fb57806395d89b411461021c578063a9059cbb14610231578063dd62ed3e14610255575b600080fd5b3480156100b457600080fd5b506100bd61027c565b6040805160208082528351818301528351919283929083019185019080838360005b838110156100f75781810151838201526020016100df565b50505050905090810190601f1680156101245780820380516001836020036101000a031916815260200191505b509250505060405180910390f35b34801561013e57600080fd5b50610156600160a060020a0360043516602435610309565b604080519115158252519081900360200190f35b34801561017657600080fd5b5061017f6103c2565b60408051918252519081900360200190f35b34801561019d57600080fd5b50610156600160a060020a03600435811690602435166044356103c8565b3480156101c757600080fd5b506101d06104f1565b6040805160ff9092168252519081900360200190f35b3480156101f257600080fd5b506100bd6104fa565b34801561020757600080fd5b5061017f600160a060020a0360043516610555565b34801561022857600080fd5b506100bd610567565b34801561023d57600080fd5b50610156600160a060020a03600435166024356105bf565b34801561026157600080fd5b5061017f600160a060020a036004358116906024351661067c565b60018054604080516020600284861615610100026000190190941693909304601f810184900484028201840190925281815292918301828280156103015780601f106102d657610100808354040283529160200191610301565b820191906000526020600020905b8154815290600101906020018083116102e457829003601f168201915b505050505081565b600082600160a060020a038116151561032157600080fd5b82158061034f5750336000908152600660209081526040808320600160a060020a0388168452909152902054155b151561035a57600080fd5b336000818152600660209081526040808320600160a060020a03891680855290835292819020879055805187815290519293927f8c5be1e5ebec7d5bd14f71427d1e84f3dd0314c0f7b2291e5b200ac8c7c3b925929181900390910190a35060019392505050565b60045481565b600083600160a060020a03811615156103e057600080fd5b83600160a060020a03811615156103f657600080fd5b600160a060020a03861660009081526006602090815260408083203384529091529020546104249085610699565b600160a060020a03871660008181526006602090815260408083203384528252808320949094559181526005909152205461045f9085610699565b600160a060020a03808816600090815260056020526040808220939093559087168152205461048e90856106ab565b600160a060020a0380871660008181526005602090815260409182902094909455805188815290519193928a16927fddf252ad1be2c89b69c2b068fc378daa952ba7f163c4a11628f55a4df523b3ef92918290030190a350600195945050505050565b60035460ff1681565b6000805460408051602060026001851615610100026000190190941693909304601f810184900484028201840190925281815292918301828280156103015780601f106102d657610100808354040283529160200191610301565b60056020526000908152604090205481565b6002805460408051602060018416156101000260001901909316849004601f810184900484028201840190925281815292918301828280156103015780601f106102d657610100808354040283529160200191610301565b600082600160a060020a03811615156105d757600080fd5b336000908152600560205260409020546105f19084610699565b3360009081526005602052604080822092909255600160a060020a0386168152205461061d90846106ab565b600160a060020a0385166000818152600560209081526040918290209390935580518681529051919233927fddf252ad1be2c89b69c2b068fc378daa952ba7f163c4a11628f55a4df523b3ef9281900390910190a35060019392505050565b600660209081526000928352604080842090915290825290205481565b6000818310156106a557fe5b50900390565b6000828201838110156106ba57fe5b93925050505600a165627a7a723058203c6f99aac301b2bcb1f5db01f4848abd578488f43cabc80aaaa995e4a660e6e40029",
  "source": "pragma solidity ^0.4.23;\nimport '../token/ERC20Token.sol';\n\n/*\n    Test token with predefined supply\n*/\ncontract TestERC20Token is ERC20Token {\n    constructor(string _name, string _symbol, uint256 _supply)\n        public\n        ERC20Token(_name, _symbol, 0)\n    {\n        totalSupply = _supply;\n        balanceOf[msg.sender] = _supply;\n    }\n}\n",
  "sourcePath": "bancor-contracts/solidity/contracts/helpers/TestERC20Token.sol",
  "compiler": {
    "name": "solc",
    "version": "0.4.24+commit.e67f0147.Emscripten.clang"
  },
  "schemaVersion": "3.0.0-beta.0",
  "updatedAt": "2018-09-11T01:19:19.855Z"
}